{
  "_format": "hh-sol-artifact-1",
  "contractName": "Bookmaker",
  "sourceName": "contracts/Bookmaker.sol",
  "abi": [
    {
      "anonymous": false,
      "inputs": [
        {
          "indexed": true,
          "internalType": "bytes32",
          "name": "id",
          "type": "bytes32"
        }
      ],
      "name": "ChainlinkCancelled",
      "type": "event"
    },
    {
      "anonymous": false,
      "inputs": [
        {
          "indexed": true,
          "internalType": "bytes32",
          "name": "id",
          "type": "bytes32"
        }
      ],
      "name": "ChainlinkFulfilled",
      "type": "event"
    },
    {
      "anonymous": false,
      "inputs": [
        {
          "indexed": true,
          "internalType": "bytes32",
          "name": "id",
          "type": "bytes32"
        }
      ],
      "name": "ChainlinkRequested",
      "type": "event"
    },
    {
      "inputs": [
        {
          "internalType": "address",
          "name": "",
          "type": "address"
        }
      ],
      "name": "addressBetsCount",
      "outputs": [
        {
          "internalType": "uint256",
          "name": "",
          "type": "uint256"
        }
      ],
      "stateMutability": "view",
      "type": "function"
    },
    {
      "inputs": [
        {
          "internalType": "uint256",
          "name": "",
          "type": "uint256"
        }
      ],
      "name": "betOffers",
      "outputs": [
        {
          "internalType": "uint256",
          "name": "id",
          "type": "uint256"
        },
        {
          "internalType": "bytes32",
          "name": "gameId",
          "type": "bytes32"
        },
        {
          "internalType": "address",
          "name": "player1",
          "type": "address"
        },
        {
          "internalType": "uint16",
          "name": "player1Bet",
          "type": "uint16"
        },
        {
          "internalType": "uint256",
          "name": "stake",
          "type": "uint256"
        },
        {
          "internalType": "uint256",
          "name": "expectedWin",
          "type": "uint256"
        },
        {
          "internalType": "address",
          "name": "player2",
          "type": "address"
        },
        {
          "internalType": "uint16",
          "name": "player2Bet",
          "type": "uint16"
        },
        {
          "internalType": "bool",
          "name": "isSettled",
          "type": "bool"
        }
      ],
      "stateMutability": "view",
      "type": "function"
    },
    {
      "inputs": [
        {
          "internalType": "uint256",
          "name": "betId",
          "type": "uint256"
        }
      ],
      "name": "cancelBetOffer",
      "outputs": [],
      "stateMutability": "nonpayable",
      "type": "function"
    },
    {
      "inputs": [
        {
          "internalType": "bytes32",
          "name": "_requestId",
          "type": "bytes32"
        },
        {
          "internalType": "uint256",
          "name": "_payment",
          "type": "uint256"
        },
        {
          "internalType": "bytes4",
          "name": "_callbackFunctionId",
          "type": "bytes4"
        },
        {
          "internalType": "uint256",
          "name": "_expiration",
          "type": "uint256"
        }
      ],
      "name": "cancelRequest",
      "outputs": [],
      "stateMutability": "nonpayable",
      "type": "function"
    },
    {
      "inputs": [
        {
          "internalType": "uint256",
          "name": "betId",
          "type": "uint256"
        }
      ],
      "name": "cashOutWin",
      "outputs": [],
      "stateMutability": "nonpayable",
      "type": "function"
    },
    {
      "inputs": [
        {
          "internalType": "bytes32",
          "name": "gameId",
          "type": "bytes32"
        },
        {
          "internalType": "uint16",
          "name": "bet",
          "type": "uint16"
        },
        {
          "internalType": "uint256",
          "name": "expectedWin",
          "type": "uint256"
        }
      ],
      "name": "createBetOffer",
      "outputs": [],
      "stateMutability": "payable",
      "type": "function"
    },
    {
      "inputs": [
        {
          "internalType": "bytes32",
          "name": "_requestId",
          "type": "bytes32"
        },
        {
          "internalType": "bytes[]",
          "name": "_requestedGames",
          "type": "bytes[]"
        }
      ],
      "name": "createGames",
      "outputs": [],
      "stateMutability": "nonpayable",
      "type": "function"
    },
    {
      "inputs": [
        {
          "internalType": "bytes32",
          "name": "",
          "type": "bytes32"
        }
      ],
      "name": "gameIdGame",
      "outputs": [
        {
          "internalType": "bytes32",
          "name": "gameId",
          "type": "bytes32"
        },
        {
          "internalType": "uint256",
          "name": "startTime",
          "type": "uint256"
        },
        {
          "internalType": "string",
          "name": "homeTeam",
          "type": "string"
        },
        {
          "internalType": "string",
          "name": "awayTeam",
          "type": "string"
        }
      ],
      "stateMutability": "view",
      "type": "function"
    },
    {
      "inputs": [
        {
          "internalType": "bytes32",
          "name": "",
          "type": "bytes32"
        }
      ],
      "name": "gameIdResult",
      "outputs": [
        {
          "internalType": "bytes32",
          "name": "gameId",
          "type": "bytes32"
        },
        {
          "internalType": "uint8",
          "name": "homeScore",
          "type": "uint8"
        },
        {
          "internalType": "uint8",
          "name": "awayScore",
          "type": "uint8"
        },
        {
          "internalType": "uint8",
          "name": "statusId",
          "type": "uint8"
        }
      ],
      "stateMutability": "view",
      "type": "function"
    },
    {
      "inputs": [
        {
          "internalType": "uint256",
          "name": "",
          "type": "uint256"
        }
      ],
      "name": "games",
      "outputs": [
        {
          "internalType": "bytes32",
          "name": "gameId",
          "type": "bytes32"
        },
        {
          "internalType": "uint256",
          "name": "startTime",
          "type": "uint256"
        },
        {
          "internalType": "string",
          "name": "homeTeam",
          "type": "string"
        },
        {
          "internalType": "string",
          "name": "awayTeam",
          "type": "string"
        }
      ],
      "stateMutability": "view",
      "type": "function"
    },
    {
      "inputs": [],
      "name": "getAllGames",
      "outputs": [
        {
          "components": [
            {
              "internalType": "bytes32",
              "name": "gameId",
              "type": "bytes32"
            },
            {
              "internalType": "uint256",
              "name": "startTime",
              "type": "uint256"
            },
            {
              "internalType": "string",
              "name": "homeTeam",
              "type": "string"
            },
            {
              "internalType": "string",
              "name": "awayTeam",
              "type": "string"
            }
          ],
          "internalType": "struct DataOracle.GameCreate[]",
          "name": "",
          "type": "tuple[]"
        }
      ],
      "stateMutability": "view",
      "type": "function"
    },
    {
      "inputs": [
        {
          "internalType": "bytes32",
          "name": "id",
          "type": "bytes32"
        }
      ],
      "name": "getGameById",
      "outputs": [
        {
          "components": [
            {
              "internalType": "bytes32",
              "name": "gameId",
              "type": "bytes32"
            },
            {
              "internalType": "uint256",
              "name": "startTime",
              "type": "uint256"
            },
            {
              "internalType": "string",
              "name": "homeTeam",
              "type": "string"
            },
            {
              "internalType": "string",
              "name": "awayTeam",
              "type": "string"
            }
          ],
          "internalType": "struct DataOracle.GameCreate",
          "name": "",
          "type": "tuple"
        }
      ],
      "stateMutability": "view",
      "type": "function"
    },
    {
      "inputs": [],
      "name": "getOpenBetOffers",
      "outputs": [
        {
          "components": [
            {
              "internalType": "uint256",
              "name": "id",
              "type": "uint256"
            },
            {
              "internalType": "bytes32",
              "name": "gameId",
              "type": "bytes32"
            },
            {
              "internalType": "address",
              "name": "player1",
              "type": "address"
            },
            {
              "internalType": "uint16",
              "name": "player1Bet",
              "type": "uint16"
            },
            {
              "internalType": "uint256",
              "name": "stake",
              "type": "uint256"
            },
            {
              "internalType": "uint256",
              "name": "expectedWin",
              "type": "uint256"
            },
            {
              "internalType": "address",
              "name": "player2",
              "type": "address"
            },
            {
              "internalType": "uint16",
              "name": "player2Bet",
              "type": "uint16"
            },
            {
              "internalType": "bool",
              "name": "isSettled",
              "type": "bool"
            }
          ],
          "internalType": "struct Bookmaker.BetOffer[]",
          "name": "",
          "type": "tuple[]"
        }
      ],
      "stateMutability": "view",
      "type": "function"
    },
    {
      "inputs": [],
      "name": "getSenderBets",
      "outputs": [
        {
          "components": [
            {
              "internalType": "uint256",
              "name": "id",
              "type": "uint256"
            },
            {
              "internalType": "bytes32",
              "name": "gameId",
              "type": "bytes32"
            },
            {
              "internalType": "address",
              "name": "player1",
              "type": "address"
            },
            {
              "internalType": "uint16",
              "name": "player1Bet",
              "type": "uint16"
            },
            {
              "internalType": "uint256",
              "name": "stake",
              "type": "uint256"
            },
            {
              "internalType": "uint256",
              "name": "expectedWin",
              "type": "uint256"
            },
            {
              "internalType": "address",
              "name": "player2",
              "type": "address"
            },
            {
              "internalType": "uint16",
              "name": "player2Bet",
              "type": "uint16"
            },
            {
              "internalType": "bool",
              "name": "isSettled",
              "type": "bool"
            }
          ],
          "internalType": "struct Bookmaker.BetOffer[]",
          "name": "",
          "type": "tuple[]"
        }
      ],
      "stateMutability": "view",
      "type": "function"
    },
    {
      "inputs": [
        {
          "internalType": "uint256",
          "name": "betId",
          "type": "uint256"
        },
        {
          "internalType": "uint16",
          "name": "bet",
          "type": "uint16"
        }
      ],
      "name": "joinBetOffer",
      "outputs": [],
      "stateMutability": "payable",
      "type": "function"
    },
    {
      "inputs": [],
      "name": "openBetsCounter",
      "outputs": [
        {
          "internalType": "uint256",
          "name": "",
          "type": "uint256"
        }
      ],
      "stateMutability": "view",
      "type": "function"
    },
    {
      "inputs": [
        {
          "internalType": "uint256",
          "name": "_sportId",
          "type": "uint256"
        },
        {
          "internalType": "uint256",
          "name": "_date",
          "type": "uint256"
        }
      ],
      "name": "requestGames",
      "outputs": [
        {
          "internalType": "bytes32",
          "name": "",
          "type": "bytes32"
        }
      ],
      "stateMutability": "nonpayable",
      "type": "function"
    },
    {
      "inputs": [
        {
          "internalType": "uint256",
          "name": "_sportId",
          "type": "uint256"
        },
        {
          "internalType": "uint256",
          "name": "_date",
          "type": "uint256"
        },
        {
          "internalType": "bytes32[]",
          "name": "_gamesId",
          "type": "bytes32[]"
        }
      ],
      "name": "requestResolveGames",
      "outputs": [],
      "stateMutability": "nonpayable",
      "type": "function"
    },
    {
      "inputs": [
        {
          "internalType": "bytes32",
          "name": "_requestId",
          "type": "bytes32"
        },
        {
          "internalType": "bytes[]",
          "name": "_requestedGames",
          "type": "bytes[]"
        }
      ],
      "name": "resolveGame",
      "outputs": [],
      "stateMutability": "nonpayable",
      "type": "function"
    },
    {
      "inputs": [
        {
          "internalType": "uint256",
          "name": "betId",
          "type": "uint256"
        },
        {
          "internalType": "uint256",
          "name": "sportId",
          "type": "uint256"
        }
      ],
      "name": "verifyResult",
      "outputs": [],
      "stateMutability": "nonpayable",
      "type": "function"
    }
  ],
  "bytecode": "0x6080604052600160045560006009553480156200001b57600080fd5b506200004173326c977e6efc84e512bb9c30f76e30c160ed06fb6200006c60201b60201c565b6200006673b9756312523826a566e222a34793e414a81c88e1620000b060201b60201c565b620000f4565b80600260006101000a81548173ffffffffffffffffffffffffffffffffffffffff021916908373ffffffffffffffffffffffffffffffffffffffff16021790555050565b80600360006101000a81548173ffffffffffffffffffffffffffffffffffffffff021916908373ffffffffffffffffffffffffffffffffffffffff16021790555050565b615b3980620001046000396000f3fe60806040526004361061011f5760003560e01c806372e26b9f116100a0578063e16aef3111610064578063e16aef31146103e7578063ec65d0f814610427578063f7dde57814610450578063fb8779181461047b578063ffd4f51c146104b85761011f565b806372e26b9f146103165780637a0f70831461033f5780637b35adba14610368578063b8dc504314610391578063db1c45f9146103bc5761011f565b80631d0f9bae116100e75780631d0f9bae1461020f5780631f3ceb5114610238578063311aeb8514610275578063370078a214610291578063550fd86c146102d15761011f565b806307673e991461012457806309ece2301461014d5780630fb922201461018a5780630fc29009146101a6578063117a5b90146101cf575b600080fd5b34801561013057600080fd5b5061014b6004803603810190610146919061439b565b6104e3565b005b34801561015957600080fd5b50610174600480360381019061016f9190614468565b61069f565b60405161018191906144a4565b60405180910390f35b6101a4600480360381019061019f91906144f9565b6106b7565b005b3480156101b257600080fd5b506101cd60048036038101906101c891906146e2565b610c0d565b005b3480156101db57600080fd5b506101f660048036038101906101f1919061473e565b610dd3565b6040516102069493929190614802565b60405180910390f35b34801561021b57600080fd5b50610236600480360381019061023191906146e2565b610f23565b005b34801561024457600080fd5b5061025f600480360381019061025a9190614855565b61118b565b60405161026c9190614954565b60405180910390f35b61028f600480360381019061028a9190614976565b6112f0565b005b34801561029d57600080fd5b506102b860048036038101906102b39190614855565b611a09565b6040516102c89493929190614802565b60405180910390f35b3480156102dd57600080fd5b506102f860048036038101906102f3919061473e565b611b49565b60405161030d999897969594939291906149ef565b60405180910390f35b34801561032257600080fd5b5061033d6004803603810190610338919061473e565b611c10565b005b34801561034b57600080fd5b506103666004803603810190610361919061473e565b611f07565b005b34801561037457600080fd5b5061038f600480360381019061038a9190614a7c565b612630565b005b34801561039d57600080fd5b506103a66129e3565b6040516103b39190614c50565b60405180910390f35b3480156103c857600080fd5b506103d1612d27565b6040516103de9190614d9e565b60405180910390f35b3480156103f357600080fd5b5061040e60048036038101906104099190614855565b612ebe565b60405161041e9493929190614ddc565b60405180910390f35b34801561043357600080fd5b5061044e60048036038101906104499190614e79565b612f15565b005b34801561045c57600080fd5b50610465612f27565b60405161047291906144a4565b60405180910390f35b34801561048757600080fd5b506104a2600480360381019061049d9190614a7c565b612f2d565b6040516104af9190614ee0565b60405180910390f35b3480156104c457600080fd5b506104cd61309a565b6040516104da9190614c50565b60405180910390f35b600067016345785d8a0000905060006105267f366230396433376232383466343635356262353130663439346564633131316660001b630fc2900960e01b613363565b90506105726040518060400160405280600481526020017f646174650000000000000000000000000000000000000000000000000000000081525085836133939092919063ffffffff16565b6105f16040518060400160405280600681526020017f6d61726b657400000000000000000000000000000000000000000000000000008152506040518060400160405280600781526020017f7265736f6c766500000000000000000000000000000000000000000000000000815250836133c69092919063ffffffff16565b61063b6040518060400160405280600781526020017f73706f727449640000000000000000000000000000000000000000000000000081525086836133939092919063ffffffff16565b61068d6040518060400160405280600781526020017f67616d654964730000000000000000000000000000000000000000000000000081525061067d856133f9565b836134b89092919063ffffffff16565b610697818361353f565b505050505050565b600a6020528060005260406000206000915090505481565b8160018161ffff1614806106cf575060008161ffff16145b806106de575060028161ffff16145b6040518060600160405280602781526020016159b86027913990610738576040517f08c379a000000000000000000000000000000000000000000000000000000000815260040161072f9190614efb565b60405180910390fd5b5083600060076000838152602001908152602001600020604051806080016040529081600082015481526020016001820154815260200160028201805461077e90614f4c565b80601f01602080910402602001604051908101604052809291908181526020018280546107aa90614f4c565b80156107f75780601f106107cc576101008083540402835291602001916107f7565b820191906000526020600020905b8154815290600101906020018083116107da57829003601f168201915b5050505050815260200160038201805461081090614f4c565b80601f016020809104026020016040519081016040528092919081815260200182805461083c90614f4c565b80156108895780601f1061085e57610100808354040283529160200191610889565b820191906000526020600020905b81548152906001019060200180831161086c57829003601f168201915b50505050508152505090504281602001511160405180606001604052806022815260200161597060229139906108f5576040517f08c379a00000000000000000000000000000000000000000000000000000000081526004016108ec9190614efb565b60405180910390fd5b50600034116040518060400160405280601681526020017f5374616b65203d203020697320666f7262696464656e0000000000000000000081525090610971576040517f08c379a00000000000000000000000000000000000000000000000000000000081526004016109689190614efb565b60405180910390fd5b50833410604051806060016040528060278152602001615a1160279139906109cf576040517f08c379a00000000000000000000000000000000000000000000000000000000081526004016109c69190614efb565b60405180910390fd5b50600b604051806101200160405280600b8054905081526020018881526020013373ffffffffffffffffffffffffffffffffffffffff1681526020018761ffff168152602001348152602001868152602001600073ffffffffffffffffffffffffffffffffffffffff168152602001600061ffff168152602001600015158152509080600181540180825580915050600190039060005260206000209060060201600090919091909150600082015181600001556020820151816001015560408201518160020160006101000a81548173ffffffffffffffffffffffffffffffffffffffff021916908373ffffffffffffffffffffffffffffffffffffffff16021790555060608201518160020160146101000a81548161ffff021916908361ffff1602179055506080820151816003015560a0820151816004015560c08201518160050160006101000a81548173ffffffffffffffffffffffffffffffffffffffff021916908373ffffffffffffffffffffffffffffffffffffffff16021790555060e08201518160050160146101000a81548161ffff021916908361ffff1602179055506101008201518160050160166101000a81548160ff021916908315150217905550505060096000815480929190610bab90614fad565b9190505550600a60003373ffffffffffffffffffffffffffffffffffffffff1673ffffffffffffffffffffffffffffffffffffffff1681526020019081526020016000206000815480929190610c0090614fad565b9190505550505050505050565b816005600082815260200190815260200160002060009054906101000a900473ffffffffffffffffffffffffffffffffffffffff1673ffffffffffffffffffffffffffffffffffffffff163373ffffffffffffffffffffffffffffffffffffffff1614610caf576040517f08c379a0000000000000000000000000000000000000000000000000000000008152600401610ca690615068565b60405180910390fd5b6005600082815260200190815260200160002060006101000a81549073ffffffffffffffffffffffffffffffffffffffff0219169055807f7cc135e0cebb02c3480ae5d74d377283180a2601f8f644edf7987b009316c63a60405160405180910390a2600082600081518110610d2857610d27615088565b5b6020026020010151806020019051810190610d43919061517a565b90508060086000836000015181526020019081526020016000206000820151816000015560208201518160010160006101000a81548160ff021916908360ff16021790555060408201518160010160016101000a81548160ff021916908360ff16021790555060608201518160010160026101000a81548160ff021916908360ff16021790555090505050505050565b60068181548110610de357600080fd5b9060005260206000209060040201600091509050806000015490806001015490806002018054610e1290614f4c565b80601f0160208091040260200160405190810160405280929190818152602001828054610e3e90614f4c565b8015610e8b5780601f10610e6057610100808354040283529160200191610e8b565b820191906000526020600020905b815481529060010190602001808311610e6e57829003601f168201915b505050505090806003018054610ea090614f4c565b80601f0160208091040260200160405190810160405280929190818152602001828054610ecc90614f4c565b8015610f195780601f10610eee57610100808354040283529160200191610f19565b820191906000526020600020905b815481529060010190602001808311610efc57829003601f168201915b5050505050905084565b816005600082815260200190815260200160002060009054906101000a900473ffffffffffffffffffffffffffffffffffffffff1673ffffffffffffffffffffffffffffffffffffffff163373ffffffffffffffffffffffffffffffffffffffff1614610fc5576040517f08c379a0000000000000000000000000000000000000000000000000000000008152600401610fbc90615068565b60405180910390fd5b6005600082815260200190815260200160002060006101000a81549073ffffffffffffffffffffffffffffffffffffffff0219169055807f7cc135e0cebb02c3480ae5d74d377283180a2601f8f644edf7987b009316c63a60405160405180910390a260005b825181101561118557600083828151811061104957611048615088565b5b6020026020010151806020019051810190611064919061530d565b9050806000015160076000836000015181526020019081526020016000206000015414611171576006819080600181540180825580915050600190039060005260206000209060040201600090919091909150600082015181600001556020820151816001015560408201518160020190805190602001906110e7929190613fe8565b506060820151816003019080519060200190611104929190613fe8565b5050508060076000836000015181526020019081526020016000206000820151816000015560208201518160010155604082015181600201908051906020019061114f929190613fe8565b50606082015181600301908051906020019061116c929190613fe8565b509050505b50808061117d90614fad565b91505061102b565b50505050565b61119361406e565b6007600083815260200190815260200160002060405180608001604052908160008201548152602001600182015481526020016002820180546111d590614f4c565b80601f016020809104026020016040519081016040528092919081815260200182805461120190614f4c565b801561124e5780601f106112235761010080835404028352916020019161124e565b820191906000526020600020905b81548152906001019060200180831161123157829003601f168201915b5050505050815260200160038201805461126790614f4c565b80601f016020809104026020016040519081016040528092919081815260200182805461129390614f4c565b80156112e05780601f106112b5576101008083540402835291602001916112e0565b820191906000526020600020905b8154815290600101906020018083116112c357829003601f168201915b5050505050815250509050919050565b81600b818154811061130557611304615088565b5b906000526020600020906006020160050160169054906101000a900460ff1615604051806060016040528060218152602001615a38602191399061137f576040517f08c379a00000000000000000000000000000000000000000000000000000000081526004016113769190614efb565b60405180910390fd5b508160018161ffff161480611398575060008161ffff16145b806113a7575060028161ffff16145b6040518060600160405280602781526020016159b86027913990611401576040517f08c379a00000000000000000000000000000000000000000000000000000000081526004016113f89190614efb565b60405180910390fd5b5083600073ffffffffffffffffffffffffffffffffffffffff16600b828154811061142f5761142e615088565b5b906000526020600020906006020160050160009054906101000a900473ffffffffffffffffffffffffffffffffffffffff1673ffffffffffffffffffffffffffffffffffffffff161460405180606001604052806026815260200161599260269139906114d2576040517f08c379a00000000000000000000000000000000000000000000000000000000081526004016114c99190614efb565b60405180910390fd5b50600b85815481106114e7576114e6615088565b5b906000526020600020906006020160010154600060076000838152602001908152602001600020604051806080016040529081600082015481526020016001820154815260200160028201805461153d90614f4c565b80601f016020809104026020016040519081016040528092919081815260200182805461156990614f4c565b80156115b65780601f1061158b576101008083540402835291602001916115b6565b820191906000526020600020905b81548152906001019060200180831161159957829003601f168201915b505050505081526020016003820180546115cf90614f4c565b80601f01602080910402602001604051908101604052809291908181526020018280546115fb90614f4c565b80156116485780601f1061161d57610100808354040283529160200191611648565b820191906000526020600020905b81548152906001019060200180831161162b57829003601f168201915b50505050508152505090504281602001511160405180606001604052806022815260200161597060229139906116b4576040517f08c379a00000000000000000000000000000000000000000000000000000000081526004016116ab9190614efb565b60405180910390fd5b503373ffffffffffffffffffffffffffffffffffffffff16600b88815481106116e0576116df615088565b5b906000526020600020906006020160020160009054906101000a900473ffffffffffffffffffffffffffffffffffffffff1673ffffffffffffffffffffffffffffffffffffffff1614156040518060400160405280601881526020017f43616e6e6f74206a6f696e20746f206f776e206f666665720000000000000000815250906117a1576040517f08c379a00000000000000000000000000000000000000000000000000000000081526004016117989190614efb565b60405180910390fd5b508561ffff16600b88815481106117bb576117ba615088565b5b906000526020600020906006020160020160149054906101000a900461ffff1661ffff161415604051806060016040528060238152602001615ab9602391399061183b576040517f08c379a00000000000000000000000000000000000000000000000000000000081526004016118329190614efb565b60405180910390fd5b50600b87815481106118505761184f615088565b5b906000526020600020906006020160030154600b888154811061187657611875615088565b5b9060005260206000209060060201600401546118929190615356565b34146040518060600160405280603281526020016159df60329139906118ee576040517f08c379a00000000000000000000000000000000000000000000000000000000081526004016118e59190614efb565b60405180910390fd5b5033600b888154811061190457611903615088565b5b906000526020600020906006020160050160006101000a81548173ffffffffffffffffffffffffffffffffffffffff021916908373ffffffffffffffffffffffffffffffffffffffff16021790555085600b888154811061196857611967615088565b5b906000526020600020906006020160050160146101000a81548161ffff021916908361ffff160217905550600a60003373ffffffffffffffffffffffffffffffffffffffff1673ffffffffffffffffffffffffffffffffffffffff16815260200190815260200160002060008154809291906119e390614fad565b9190505550600960008154809291906119fb9061538a565b919050555050505050505050565b6007602052806000526040600020600091509050806000015490806001015490806002018054611a3890614f4c565b80601f0160208091040260200160405190810160405280929190818152602001828054611a6490614f4c565b8015611ab15780601f10611a8657610100808354040283529160200191611ab1565b820191906000526020600020905b815481529060010190602001808311611a9457829003601f168201915b505050505090806003018054611ac690614f4c565b80601f0160208091040260200160405190810160405280929190818152602001828054611af290614f4c565b8015611b3f5780601f10611b1457610100808354040283529160200191611b3f565b820191906000526020600020905b815481529060010190602001808311611b2257829003601f168201915b5050505050905084565b600b8181548110611b5957600080fd5b90600052602060002090600602016000915090508060000154908060010154908060020160009054906101000a900473ffffffffffffffffffffffffffffffffffffffff16908060020160149054906101000a900461ffff16908060030154908060040154908060050160009054906101000a900473ffffffffffffffffffffffffffffffffffffffff16908060050160149054906101000a900461ffff16908060050160169054906101000a900460ff16905089565b80600b8181548110611c2557611c24615088565b5b906000526020600020906006020160050160169054906101000a900460ff1615604051806060016040528060218152602001615a386021913990611c9f576040517f08c379a0000000000000000000000000000000000000000000000000000000008152600401611c969190614efb565b60405180910390fd5b5081600073ffffffffffffffffffffffffffffffffffffffff16600b8281548110611ccd57611ccc615088565b5b906000526020600020906006020160050160009054906101000a900473ffffffffffffffffffffffffffffffffffffffff1673ffffffffffffffffffffffffffffffffffffffff16146040518060600160405280602681526020016159926026913990611d70576040517f08c379a0000000000000000000000000000000000000000000000000000000008152600401611d679190614efb565b60405180910390fd5b50600b8381548110611d8557611d84615088565b5b906000526020600020906006020160020160009054906101000a900473ffffffffffffffffffffffffffffffffffffffff1673ffffffffffffffffffffffffffffffffffffffff163373ffffffffffffffffffffffffffffffffffffffff16146040518060600160405280603e8152602001615a59603e913990611e3f576040517f08c379a0000000000000000000000000000000000000000000000000000000008152600401611e369190614efb565b60405180910390fd5b503373ffffffffffffffffffffffffffffffffffffffff166108fc600b8581548110611e6e57611e6d615088565b5b9060005260206000209060060201600301549081150290604051600060405180830381858888f19350505050158015611eab573d6000803e3d6000fd5b506001600b8481548110611ec257611ec1615088565b5b906000526020600020906006020160050160166101000a81548160ff02191690831515021790555060096000815480929190611efd9061538a565b9190505550505050565b80600b8181548110611f1c57611f1b615088565b5b906000526020600020906006020160050160169054906101000a900460ff1615604051806060016040528060218152602001615a386021913990611f96576040517f08c379a0000000000000000000000000000000000000000000000000000000008152600401611f8d9190614efb565b60405180910390fd5b506000600b8381548110611fad57611fac615088565b5b90600052602060002090600602016040518061012001604052908160008201548152602001600182015481526020016002820160009054906101000a900473ffffffffffffffffffffffffffffffffffffffff1673ffffffffffffffffffffffffffffffffffffffff1673ffffffffffffffffffffffffffffffffffffffff1681526020016002820160149054906101000a900461ffff1661ffff1661ffff16815260200160038201548152602001600482015481526020016005820160009054906101000a900473ffffffffffffffffffffffffffffffffffffffff1673ffffffffffffffffffffffffffffffffffffffff1673ffffffffffffffffffffffffffffffffffffffff1681526020016005820160149054906101000a900461ffff1661ffff1661ffff1681526020016005820160169054906101000a900460ff161515151581525050905060006007600083602001518152602001908152602001600020604051806080016040529081600082015481526020016001820154815260200160028201805461214090614f4c565b80601f016020809104026020016040519081016040528092919081815260200182805461216c90614f4c565b80156121b95780601f1061218e576101008083540402835291602001916121b9565b820191906000526020600020905b81548152906001019060200180831161219c57829003601f168201915b505050505081526020016003820180546121d290614f4c565b80601f01602080910402602001604051908101604052809291908181526020018280546121fe90614f4c565b801561224b5780601f106122205761010080835404028352916020019161224b565b820191906000526020600020905b81548152906001019060200180831161222e57829003601f168201915b50505050508152505090506000600860008360000151815260200190815260200160002060010160029054906101000a900460ff1660ff161415604051806060016040528060228152602001615a9760229139906122df576040517f08c379a00000000000000000000000000000000000000000000000000000000081526004016122d69190614efb565b60405180910390fd5b5060088060008360000151815260200190815260200160002060010160029054906101000a900460ff1660ff16141561250a5760008260400151905060008360c0015190506000808560600151905060008660e0015190506000600860008860000151815260200190815260200160002060010160009054906101000a900460ff1660ff1690506000600860008960000151815260200190815260200160002060010160019054906101000a900460ff1660ff16905080821180156123a8575060018461ffff16145b156123b557869450612440565b80821180156123c8575060018361ffff16145b156123d55785945061243f565b80821080156123e8575060028461ffff16145b156123f55786945061243e565b8082108015612408575060028361ffff16145b156124155785945061243d565b60008461ffff16141561242a5786945061243c565b60008361ffff16141561243b578594505b5b5b5b5b5b600073ffffffffffffffffffffffffffffffffffffffff168573ffffffffffffffffffffffffffffffffffffffff16146124fe578473ffffffffffffffffffffffffffffffffffffffff166108fc8a60a001519081150290604051600060405180830381858888f193505050501580156124be573d6000803e3d6000fd5b506001600b8c815481106124d5576124d4615088565b5b906000526020600020906006020160050160166101000a81548160ff0219169083151502179055505b5050505050505061262a565b6001600860008360000151815260200190815260200160002060010160029054906101000a900460ff1660ff16141561262957816040015173ffffffffffffffffffffffffffffffffffffffff166108fc83608001519081150290604051600060405180830381858888f1935050505015801561258b573d6000803e3d6000fd5b508160c0015173ffffffffffffffffffffffffffffffffffffffff166108fc83608001518460a001516125be9190615356565b9081150290604051600060405180830381858888f193505050501580156125e9573d6000803e3d6000fd5b506001600b8581548110612600576125ff615088565b5b906000526020600020906006020160050160166101000a81548160ff0219169083151502179055505b5b50505050565b81600b818154811061264557612644615088565b5b906000526020600020906006020160050160169054906101000a900460ff1615604051806060016040528060218152602001615a3860219139906126bf576040517f08c379a00000000000000000000000000000000000000000000000000000000081526004016126b69190614efb565b60405180910390fd5b50600060076000600b86815481106126da576126d9615088565b5b9060005260206000209060060201600101548152602001908152602001600020604051806080016040529081600082015481526020016001820154815260200160028201805461272990614f4c565b80601f016020809104026020016040519081016040528092919081815260200182805461275590614f4c565b80156127a25780601f10612777576101008083540402835291602001916127a2565b820191906000526020600020905b81548152906001019060200180831161278557829003601f168201915b505050505081526020016003820180546127bb90614f4c565b80601f01602080910402602001604051908101604052809291908181526020018280546127e790614f4c565b80156128345780601f1061280957610100808354040283529160200191612834565b820191906000526020600020905b81548152906001019060200180831161281757829003601f168201915b5050505050815250509050612a304261284d9190615356565b816020015110604051806060016040528060288152602001615adc60289139906128ad576040517f08c379a00000000000000000000000000000000000000000000000000000000081526004016128a49190614efb565b60405180910390fd5b5060088060008360000151815260200190815260200160002060010160029054906101000a900460ff1660ff1614156040518060400160405280601d81526020017f546869732067616d6520697320616c726561647920766572696669656400000081525090612953576040517f08c379a000000000000000000000000000000000000000000000000000000000815260040161294a9190614efb565b60405180910390fd5b506000816020015190506000600167ffffffffffffffff81111561297a57612979614222565b5b6040519080825280602002602001820160405280156129a85781602001602082028036833780820191505090505b5090508260000151816000815181106129c4576129c3615088565b5b6020026020010181815250506129db8583836104e3565b505050505050565b60606000600a60003373ffffffffffffffffffffffffffffffffffffffff1673ffffffffffffffffffffffffffffffffffffffff1681526020019081526020016000205467ffffffffffffffff811115612a4057612a3f614222565b5b604051908082528060200260200182016040528015612a7957816020015b612a66614099565b815260200190600190039081612a5e5790505b5090506000805b600b80549050811015612d1e573373ffffffffffffffffffffffffffffffffffffffff16600b8281548110612ab857612ab7615088565b5b906000526020600020906006020160020160009054906101000a900473ffffffffffffffffffffffffffffffffffffffff1673ffffffffffffffffffffffffffffffffffffffff161480612b7c57503373ffffffffffffffffffffffffffffffffffffffff16600b8281548110612b3257612b31615088565b5b906000526020600020906006020160050160009054906101000a900473ffffffffffffffffffffffffffffffffffffffff1673ffffffffffffffffffffffffffffffffffffffff16145b15612d0b57600b8181548110612b9557612b94615088565b5b90600052602060002090600602016040518061012001604052908160008201548152602001600182015481526020016002820160009054906101000a900473ffffffffffffffffffffffffffffffffffffffff1673ffffffffffffffffffffffffffffffffffffffff1673ffffffffffffffffffffffffffffffffffffffff1681526020016002820160149054906101000a900461ffff1661ffff1661ffff16815260200160038201548152602001600482015481526020016005820160009054906101000a900473ffffffffffffffffffffffffffffffffffffffff1673ffffffffffffffffffffffffffffffffffffffff1673ffffffffffffffffffffffffffffffffffffffff1681526020016005820160149054906101000a900461ffff1661ffff1661ffff1681526020016005820160169054906101000a900460ff161515151581525050838381518110612cf157612cf0615088565b5b60200260200101819052508180612d0790614fad565b9250505b8080612d1690614fad565b915050612a80565b50819250505090565b60606006805480602002602001604051908101604052809291908181526020016000905b82821015612eb557838290600052602060002090600402016040518060800160405290816000820154815260200160018201548152602001600282018054612d9290614f4c565b80601f0160208091040260200160405190810160405280929190818152602001828054612dbe90614f4c565b8015612e0b5780601f10612de057610100808354040283529160200191612e0b565b820191906000526020600020905b815481529060010190602001808311612dee57829003601f168201915b50505050508152602001600382018054612e2490614f4c565b80601f0160208091040260200160405190810160405280929190818152602001828054612e5090614f4c565b8015612e9d5780601f10612e7257610100808354040283529160200191612e9d565b820191906000526020600020905b815481529060010190602001808311612e8057829003601f168201915b50505050508152505081526020019060010190612d4b565b50505050905090565b60086020528060005260406000206000915090508060000154908060010160009054906101000a900460ff16908060010160019054906101000a900460ff16908060010160029054906101000a900460ff16905084565b612f2184848484613576565b50505050565b60095481565b60008067016345785d8a000090506000612f717f366230396433376232383466343635356262353130663439346564633131316660001b631d0f9bae60e01b613363565b9050612fbd6040518060400160405280600481526020017f646174650000000000000000000000000000000000000000000000000000000081525085836133939092919063ffffffff16565b61303c6040518060400160405280600681526020017f6d61726b657400000000000000000000000000000000000000000000000000008152506040518060400160405280600681526020017f6372656174650000000000000000000000000000000000000000000000000000815250836133c69092919063ffffffff16565b6130866040518060400160405280600781526020017f73706f727449640000000000000000000000000000000000000000000000000081525086836133939092919063ffffffff16565b613090818361353f565b9250505092915050565b6060600060095467ffffffffffffffff8111156130ba576130b9614222565b5b6040519080825280602002602001820160405280156130f357816020015b6130e0614099565b8152602001906001900390816130d85790505b5090506000805b600b8054905081101561335a57600b818154811061311b5761311a615088565b5b906000526020600020906006020160050160169054906101000a900460ff161580156131b85750600073ffffffffffffffffffffffffffffffffffffffff16600b828154811061316e5761316d615088565b5b906000526020600020906006020160050160009054906101000a900473ffffffffffffffffffffffffffffffffffffffff1673ffffffffffffffffffffffffffffffffffffffff16145b1561334757600b81815481106131d1576131d0615088565b5b90600052602060002090600602016040518061012001604052908160008201548152602001600182015481526020016002820160009054906101000a900473ffffffffffffffffffffffffffffffffffffffff1673ffffffffffffffffffffffffffffffffffffffff1673ffffffffffffffffffffffffffffffffffffffff1681526020016002820160149054906101000a900461ffff1661ffff1661ffff16815260200160038201548152602001600482015481526020016005820160009054906101000a900473ffffffffffffffffffffffffffffffffffffffff1673ffffffffffffffffffffffffffffffffffffffff1673ffffffffffffffffffffffffffffffffffffffff1681526020016005820160149054906101000a900461ffff1661ffff1661ffff1681526020016005820160169054906101000a900460ff16151515158152505083838151811061332d5761332c615088565b5b6020026020010181905250818061334390614fad565b9250505b808061335290614fad565b9150506130fa565b50819250505090565b61336b61411e565b61337361411e565b61338a84308584613689909392919063ffffffff16565b91505092915050565b6133aa82846080015161373990919063ffffffff16565b6133c181846080015161375e90919063ffffffff16565b505050565b6133dd82846080015161373990919063ffffffff16565b6133f481846080015161373990919063ffffffff16565b505050565b60606000825167ffffffffffffffff81111561341857613417614222565b5b60405190808252806020026020018201604052801561344b57816020015b60608152602001906001900390816134365790505b50905060005b83518110156134ae5761347d8482815181106134705761346f615088565b5b602002602001015161378e565b8282815181106134905761348f615088565b5b602002602001018190525080806134a690614fad565b915050613451565b5080915050919050565b6134cf82846080015161373990919063ffffffff16565b6134dc8360800151613864565b60005b815181101561352c576135198282815181106134fe576134fd615088565b5b6020026020010151856080015161373990919063ffffffff16565b808061352490614fad565b9150506134df565b5061353a8360800151613872565b505050565b600061356e600360009054906101000a900473ffffffffffffffffffffffffffffffffffffffff168484613880565b905092915050565b60006005600086815260200190815260200160002060009054906101000a900473ffffffffffffffffffffffffffffffffffffffff1690506005600086815260200190815260200160002060006101000a81549073ffffffffffffffffffffffffffffffffffffffff0219169055847fe1fe3afa0f7f761ff0a8b89086790efd5140d2907ebd5b7ff6bfcb5e075fd4c560405160405180910390a28073ffffffffffffffffffffffffffffffffffffffff16636ee4d553868686866040518563ffffffff1660e01b815260040161365094939291906153c3565b600060405180830381600087803b15801561366a57600080fd5b505af115801561367e573d6000803e3d6000fd5b505050505050505050565b61369161411e565b6136a1856080015161010061394a565b508385600001818152505082856020019073ffffffffffffffffffffffffffffffffffffffff16908173ffffffffffffffffffffffffffffffffffffffff16815250508185604001907bffffffffffffffffffffffffffffffffffffffffffffffffffffffff191690817bffffffffffffffffffffffffffffffffffffffffffffffffffffffff191681525050849050949350505050565b61374682600383516139b4565b6137598183613b3990919063ffffffff16565b505050565b67ffffffffffffffff81111561377d576137788282613b5b565b61378a565b613789826000836139b4565b5b5050565b60606000602067ffffffffffffffff8111156137ad576137ac614222565b5b6040519080825280601f01601f1916602001820160405280156137df5781602001600182028036833780820191505090505b50905060005b602081101561385a5783816020811061380157613800615088565b5b1a60f81b82828151811061381857613817615088565b5b60200101907effffffffffffffffffffffffffffffffffffffffffffffffffffffffffffff1916908160001a905350808061385290614fad565b9150506137e5565b5080915050919050565b61386f816004613ba7565b50565b61387d816007613ba7565b50565b60008060045490506001816138959190615408565b6004819055506000633c6d41b960e01b600080876000015188604001518660028b60800151600001516040516024016138d497969594939291906154b3565b604051602081830303815290604052907bffffffffffffffffffffffffffffffffffffffffffffffffffffffff19166020820180517bffffffffffffffffffffffffffffffffffffffffffffffffffffffff8381831617835250505050905061393f86838684613bc9565b925050509392505050565b61395261418b565b60006020836139619190615558565b1461398d576020826139739190615558565b602061397f9190615356565b8261398a9190615408565b91505b81836020018181525050604051808452600081528281016020016040525082905092915050565b60178167ffffffffffffffff16116139eb576139e58160058460ff16901b60ff161784613d6d90919063ffffffff16565b50613b34565b60ff8167ffffffffffffffff1611613a4157613a1a601860058460ff16901b1784613d6d90919063ffffffff16565b50613a3b8167ffffffffffffffff16600185613d8d9092919063ffffffff16565b50613b33565b61ffff8167ffffffffffffffff1611613a9857613a71601960058460ff16901b1784613d6d90919063ffffffff16565b50613a928167ffffffffffffffff16600285613d8d9092919063ffffffff16565b50613b32565b63ffffffff8167ffffffffffffffff1611613af157613aca601a60058460ff16901b1784613d6d90919063ffffffff16565b50613aeb8167ffffffffffffffff16600485613d8d9092919063ffffffff16565b50613b31565b613b0e601b60058460ff16901b1784613d6d90919063ffffffff16565b50613b2f8167ffffffffffffffff16600885613d8d9092919063ffffffff16565b505b5b5b5b505050565b613b4161418b565b613b5383846000015151848551613daf565b905092915050565b613b7960026005600660ff16901b1783613d6d90919063ffffffff16565b50613ba38282604051602001613b8f91906144a4565b604051602081830303815290604052613e9e565b5050565b613bc4601f60058360ff16901b1783613d6d90919063ffffffff16565b505050565b60003084604051602001613bde929190615642565b604051602081830303815290604052805190602001209050846005600083815260200190815260200160002060006101000a81548173ffffffffffffffffffffffffffffffffffffffff021916908373ffffffffffffffffffffffffffffffffffffffff160217905550807fb5e6e01e79f91267dc17b4e6314d5d4d03593d2ceee0fbb452b750bd70ea5af960405160405180910390a2600260009054906101000a900473ffffffffffffffffffffffffffffffffffffffff1673ffffffffffffffffffffffffffffffffffffffff16634000aea08685856040518463ffffffff1660e01b8152600401613cd49392919061566e565b602060405180830381600087803b158015613cee57600080fd5b505af1158015613d02573d6000803e3d6000fd5b505050506040513d601f19601f82011682018060405250810190613d2691906156d8565b613d65576040517f08c379a0000000000000000000000000000000000000000000000000000000008152600401613d5c90615777565b60405180910390fd5b949350505050565b613d7561418b565b613d858384600001515184613ec3565b905092915050565b613d9561418b565b613da6848560000151518585613f1a565b90509392505050565b613db761418b565b8251821115613dc557600080fd5b84602001518285613dd69190615408565b1115613e0b57613e0a856002613dfb88602001518887613df69190615408565b613fa8565b613e059190615797565b613fc4565b5b600080865180518760208301019350808887011115613e2a5787860182525b60208701925050505b60208410613e715780518252602082613e4c9190615408565b9150602081613e5b9190615408565b9050602084613e6a9190615356565b9350613e33565b60006001856020036101000a03905080198251168184511681811785525050508692505050949350505050565b613eab82600283516139b4565b613ebe8183613b3990919063ffffffff16565b505050565b613ecb61418b565b83602001518310613ef157613ef08460028660200151613eeb9190615797565b613fc4565b5b8351805160208583010184815381861415613f0d576001820183525b5050508390509392505050565b613f2261418b565b84602001518483613f339190615408565b1115613f5b57613f5a8560028685613f4b9190615408565b613f559190615797565b613fc4565b5b6000600183610100613f6d9190615924565b613f779190615356565b90508551838682010185831982511617815281518588011115613f9a5784870182525b505085915050949350505050565b600081831115613fba57829050613fbe565b8190505b92915050565b600082600001519050613fd7838361394a565b50613fe28382613b39565b50505050565b828054613ff490614f4c565b90600052602060002090601f016020900481019282614016576000855561405d565b82601f1061402f57805160ff191683800117855561405d565b8280016001018555821561405d579182015b8281111561405c578251825591602001919060010190614041565b5b50905061406a91906141a5565b5090565b6040518060800160405280600080191681526020016000815260200160608152602001606081525090565b6040518061012001604052806000815260200160008019168152602001600073ffffffffffffffffffffffffffffffffffffffff168152602001600061ffff1681526020016000815260200160008152602001600073ffffffffffffffffffffffffffffffffffffffff168152602001600061ffff1681526020016000151581525090565b6040518060a0016040528060008019168152602001600073ffffffffffffffffffffffffffffffffffffffff16815260200160007bffffffffffffffffffffffffffffffffffffffffffffffffffffffff191681526020016000815260200161418561418b565b81525090565b604051806040016040528060608152602001600081525090565b5b808211156141be5760008160009055506001016141a6565b5090565b6000604051905090565b600080fd5b600080fd5b6000819050919050565b6141e9816141d6565b81146141f457600080fd5b50565b600081359050614206816141e0565b92915050565b600080fd5b6000601f19601f8301169050919050565b7f4e487b7100000000000000000000000000000000000000000000000000000000600052604160045260246000fd5b61425a82614211565b810181811067ffffffffffffffff8211171561427957614278614222565b5b80604052505050565b600061428c6141c2565b90506142988282614251565b919050565b600067ffffffffffffffff8211156142b8576142b7614222565b5b602082029050602081019050919050565b600080fd5b6000819050919050565b6142e1816142ce565b81146142ec57600080fd5b50565b6000813590506142fe816142d8565b92915050565b60006143176143128461429d565b614282565b9050808382526020820190506020840283018581111561433a576143396142c9565b5b835b81811015614363578061434f88826142ef565b84526020840193505060208101905061433c565b5050509392505050565b600082601f8301126143825761438161420c565b5b8135614392848260208601614304565b91505092915050565b6000806000606084860312156143b4576143b36141cc565b5b60006143c2868287016141f7565b93505060206143d3868287016141f7565b925050604084013567ffffffffffffffff8111156143f4576143f36141d1565b5b6144008682870161436d565b9150509250925092565b600073ffffffffffffffffffffffffffffffffffffffff82169050919050565b60006144358261440a565b9050919050565b6144458161442a565b811461445057600080fd5b50565b6000813590506144628161443c565b92915050565b60006020828403121561447e5761447d6141cc565b5b600061448c84828501614453565b91505092915050565b61449e816141d6565b82525050565b60006020820190506144b96000830184614495565b92915050565b600061ffff82169050919050565b6144d6816144bf565b81146144e157600080fd5b50565b6000813590506144f3816144cd565b92915050565b600080600060608486031215614512576145116141cc565b5b6000614520868287016142ef565b9350506020614531868287016144e4565b9250506040614542868287016141f7565b9150509250925092565b600067ffffffffffffffff82111561456757614566614222565b5b602082029050602081019050919050565b600080fd5b600067ffffffffffffffff82111561459857614597614222565b5b6145a182614211565b9050602081019050919050565b82818337600083830152505050565b60006145d06145cb8461457d565b614282565b9050828152602081018484840111156145ec576145eb614578565b5b6145f78482856145ae565b509392505050565b600082601f8301126146145761461361420c565b5b81356146248482602086016145bd565b91505092915050565b600061464061463b8461454c565b614282565b90508083825260208201905060208402830185811115614663576146626142c9565b5b835b818110156146aa57803567ffffffffffffffff8111156146885761468761420c565b5b80860161469589826145ff565b85526020850194505050602081019050614665565b5050509392505050565b600082601f8301126146c9576146c861420c565b5b81356146d984826020860161462d565b91505092915050565b600080604083850312156146f9576146f86141cc565b5b6000614707858286016142ef565b925050602083013567ffffffffffffffff811115614728576147276141d1565b5b614734858286016146b4565b9150509250929050565b600060208284031215614754576147536141cc565b5b6000614762848285016141f7565b91505092915050565b614774816142ce565b82525050565b600081519050919050565b600082825260208201905092915050565b60005b838110156147b4578082015181840152602081019050614799565b838111156147c3576000848401525b50505050565b60006147d48261477a565b6147de8185614785565b93506147ee818560208601614796565b6147f781614211565b840191505092915050565b6000608082019050614817600083018761476b565b6148246020830186614495565b818103604083015261483681856147c9565b9050818103606083015261484a81846147c9565b905095945050505050565b60006020828403121561486b5761486a6141cc565b5b6000614879848285016142ef565b91505092915050565b61488b816142ce565b82525050565b61489a816141d6565b82525050565b600082825260208201905092915050565b60006148bc8261477a565b6148c681856148a0565b93506148d6818560208601614796565b6148df81614211565b840191505092915050565b60006080830160008301516149026000860182614882565b5060208301516149156020860182614891565b506040830151848203604086015261492d82826148b1565b9150506060830151848203606086015261494782826148b1565b9150508091505092915050565b6000602082019050818103600083015261496e81846148ea565b905092915050565b6000806040838503121561498d5761498c6141cc565b5b600061499b858286016141f7565b92505060206149ac858286016144e4565b9150509250929050565b6149bf8161442a565b82525050565b6149ce816144bf565b82525050565b60008115159050919050565b6149e9816149d4565b82525050565b600061012082019050614a05600083018c614495565b614a12602083018b61476b565b614a1f604083018a6149b6565b614a2c60608301896149c5565b614a396080830188614495565b614a4660a0830187614495565b614a5360c08301866149b6565b614a6060e08301856149c5565b614a6e6101008301846149e0565b9a9950505050505050505050565b60008060408385031215614a9357614a926141cc565b5b6000614aa1858286016141f7565b9250506020614ab2858286016141f7565b9150509250929050565b600081519050919050565b600082825260208201905092915050565b6000819050602082019050919050565b614af18161442a565b82525050565b614b00816144bf565b82525050565b614b0f816149d4565b82525050565b61012082016000820151614b2c6000850182614891565b506020820151614b3f6020850182614882565b506040820151614b526040850182614ae8565b506060820151614b656060850182614af7565b506080820151614b786080850182614891565b5060a0820151614b8b60a0850182614891565b5060c0820151614b9e60c0850182614ae8565b5060e0820151614bb160e0850182614af7565b50610100820151614bc6610100850182614b06565b50505050565b6000614bd88383614b15565b6101208301905092915050565b6000602082019050919050565b6000614bfd82614abc565b614c078185614ac7565b9350614c1283614ad8565b8060005b83811015614c43578151614c2a8882614bcc565b9750614c3583614be5565b925050600181019050614c16565b5085935050505092915050565b60006020820190508181036000830152614c6a8184614bf2565b905092915050565b600081519050919050565b600082825260208201905092915050565b6000819050602082019050919050565b6000608083016000830151614cb66000860182614882565b506020830151614cc96020860182614891565b5060408301518482036040860152614ce182826148b1565b91505060608301518482036060860152614cfb82826148b1565b9150508091505092915050565b6000614d148383614c9e565b905092915050565b6000602082019050919050565b6000614d3482614c72565b614d3e8185614c7d565b935083602082028501614d5085614c8e565b8060005b85811015614d8c5784840389528151614d6d8582614d08565b9450614d7883614d1c565b925060208a01995050600181019050614d54565b50829750879550505050505092915050565b60006020820190508181036000830152614db88184614d29565b905092915050565b600060ff82169050919050565b614dd681614dc0565b82525050565b6000608082019050614df1600083018761476b565b614dfe6020830186614dcd565b614e0b6040830185614dcd565b614e186060830184614dcd565b95945050505050565b60007fffffffff0000000000000000000000000000000000000000000000000000000082169050919050565b614e5681614e21565b8114614e6157600080fd5b50565b600081359050614e7381614e4d565b92915050565b60008060008060808587031215614e9357614e926141cc565b5b6000614ea1878288016142ef565b9450506020614eb2878288016141f7565b9350506040614ec387828801614e64565b9250506060614ed4878288016141f7565b91505092959194509250565b6000602082019050614ef5600083018461476b565b92915050565b60006020820190508181036000830152614f1581846147c9565b905092915050565b7f4e487b7100000000000000000000000000000000000000000000000000000000600052602260045260246000fd5b60006002820490506001821680614f6457607f821691505b60208210811415614f7857614f77614f1d565b5b50919050565b7f4e487b7100000000000000000000000000000000000000000000000000000000600052601160045260246000fd5b6000614fb8826141d6565b91507fffffffffffffffffffffffffffffffffffffffffffffffffffffffffffffffff821415614feb57614fea614f7e565b5b600182019050919050565b7f536f75726365206d75737420626520746865206f7261636c65206f662074686560008201527f2072657175657374000000000000000000000000000000000000000000000000602082015250565b6000615052602883614785565b915061505d82614ff6565b604082019050919050565b6000602082019050818103600083015261508181615045565b9050919050565b7f4e487b7100000000000000000000000000000000000000000000000000000000600052603260045260246000fd5b600080fd5b600080fd5b6000815190506150d0816142d8565b92915050565b6150df81614dc0565b81146150ea57600080fd5b50565b6000815190506150fc816150d6565b92915050565b600060808284031215615118576151176150b7565b5b6151226080614282565b90506000615132848285016150c1565b6000830152506020615146848285016150ed565b602083015250604061515a848285016150ed565b604083015250606061516e848285016150ed565b60608301525092915050565b6000608082840312156151905761518f6141cc565b5b600061519e84828501615102565b91505092915050565b6000815190506151b6816141e0565b92915050565b600067ffffffffffffffff8211156151d7576151d6614222565b5b6151e082614211565b9050602081019050919050565b60006152006151fb846151bc565b614282565b90508281526020810184848401111561521c5761521b614578565b5b615227848285614796565b509392505050565b600082601f8301126152445761524361420c565b5b81516152548482602086016151ed565b91505092915050565b600060808284031215615273576152726150b7565b5b61527d6080614282565b9050600061528d848285016150c1565b60008301525060206152a1848285016151a7565b602083015250604082015167ffffffffffffffff8111156152c5576152c46150bc565b5b6152d18482850161522f565b604083015250606082015167ffffffffffffffff8111156152f5576152f46150bc565b5b6153018482850161522f565b60608301525092915050565b600060208284031215615323576153226141cc565b5b600082015167ffffffffffffffff811115615341576153406141d1565b5b61534d8482850161525d565b91505092915050565b6000615361826141d6565b915061536c836141d6565b92508282101561537f5761537e614f7e565b5b828203905092915050565b6000615395826141d6565b915060008214156153a9576153a8614f7e565b5b600182039050919050565b6153bd81614e21565b82525050565b60006080820190506153d8600083018761476b565b6153e56020830186614495565b6153f260408301856153b4565b6153ff6060830184614495565b95945050505050565b6000615413826141d6565b915061541e836141d6565b9250827fffffffffffffffffffffffffffffffffffffffffffffffffffffffffffffffff0382111561545357615452614f7e565b5b828201905092915050565b600081519050919050565b600082825260208201905092915050565b60006154858261545e565b61548f8185615469565b935061549f818560208601614796565b6154a881614211565b840191505092915050565b600060e0820190506154c8600083018a6149b6565b6154d56020830189614495565b6154e2604083018861476b565b6154ef60608301876153b4565b6154fc6080830186614495565b61550960a0830185614495565b81810360c083015261551b818461547a565b905098975050505050505050565b7f4e487b7100000000000000000000000000000000000000000000000000000000600052601260045260246000fd5b6000615563826141d6565b915061556e836141d6565b92508261557e5761557d615529565b5b828206905092915050565b6000819050919050565b60006155ae6155a96155a48461440a565b615589565b61440a565b9050919050565b60006155c082615593565b9050919050565b60006155d2826155b5565b9050919050565b60008160601b9050919050565b60006155f1826155d9565b9050919050565b6000615603826155e6565b9050919050565b61561b615616826155c7565b6155f8565b82525050565b6000819050919050565b61563c615637826141d6565b615621565b82525050565b600061564e828561560a565b60148201915061565e828461562b565b6020820191508190509392505050565b600060608201905061568360008301866149b6565b6156906020830185614495565b81810360408301526156a2818461547a565b9050949350505050565b6156b5816149d4565b81146156c057600080fd5b50565b6000815190506156d2816156ac565b92915050565b6000602082840312156156ee576156ed6141cc565b5b60006156fc848285016156c3565b91505092915050565b7f756e61626c6520746f207472616e73666572416e6443616c6c20746f206f726160008201527f636c650000000000000000000000000000000000000000000000000000000000602082015250565b6000615761602383614785565b915061576c82615705565b604082019050919050565b6000602082019050818103600083015261579081615754565b9050919050565b60006157a2826141d6565b91506157ad836141d6565b9250817fffffffffffffffffffffffffffffffffffffffffffffffffffffffffffffffff04831182151516156157e6576157e5614f7e565b5b828202905092915050565b60008160011c9050919050565b6000808291508390505b60018511156158485780860481111561582457615823614f7e565b5b60018516156158335780820291505b8081029050615841856157f1565b9450615808565b94509492505050565b600082615861576001905061591d565b8161586f576000905061591d565b8160018114615885576002811461588f576158be565b600191505061591d565b60ff8411156158a1576158a0614f7e565b5b8360020a9150848211156158b8576158b7614f7e565b5b5061591d565b5060208310610133831016604e8410600b84101617156158f35782820a9050838111156158ee576158ed614f7e565b5b61591d565b61590084848460016157fe565b9250905081840481111561591757615916614f7e565b5b81810290505b9392505050565b600061592f826141d6565b915061593a836141d6565b92506159677fffffffffffffffffffffffffffffffffffffffffffffffffffffffffffffffff8484615851565b90509291505056fe53746172742074696d65206f662067616d6520646561646c696e6520706173736564546865726520697320616c726561647920706c617965723220666f7220746865736520626574496e76616c6964206265742076616c7565202873686f756c6420626520312c2030206f7220322957726f6e67207374616b652076616c756520746f206d6565742065787065637465642077696e20726571756972656d656e7445787065637465642077696e206d7573742062652067726561746572207468616e207374616b6554686973206265742068617320616c7265616479206265656e20736574746c6564426574206f6666657220696e69746961746f7220616464726573732061726520646966666572656e7420746861742066756e6374696f6e2063616c6c6572596f75206861766520746f2063616c6c207665726966792067616d6520666972737443616e6e6f74206265742073616d6520726573756c74206c696b6520706c61796572313320686f7572732061667465722067616d6520737461727420646f206e6f74207061737320796574a2646970667358221220ad652b9348086708bb59cca55f6dfa113791a59a1646bf91e0f1dfeab60ef53d64736f6c63430008090033",
  "linkReferences": {},
  "deployedLinkReferences": {}
}