{
  "_format": "hh-sol-artifact-1",
  "contractName": "Bookmaker",
  "sourceName": "contracts/Bookmaker.sol",
  "abi": [
    {
      "anonymous": false,
      "inputs": [
        {
          "indexed": true,
          "internalType": "bytes32",
          "name": "id",
          "type": "bytes32"
        }
      ],
      "name": "ChainlinkCancelled",
      "type": "event"
    },
    {
      "anonymous": false,
      "inputs": [
        {
          "indexed": true,
          "internalType": "bytes32",
          "name": "id",
          "type": "bytes32"
        }
      ],
      "name": "ChainlinkFulfilled",
      "type": "event"
    },
    {
      "anonymous": false,
      "inputs": [
        {
          "indexed": true,
          "internalType": "bytes32",
          "name": "id",
          "type": "bytes32"
        }
      ],
      "name": "ChainlinkRequested",
      "type": "event"
    },
    {
      "inputs": [
        {
          "internalType": "address",
          "name": "",
          "type": "address"
        }
      ],
      "name": "addressBetsCount",
      "outputs": [
        {
          "internalType": "uint256",
          "name": "",
          "type": "uint256"
        }
      ],
      "stateMutability": "view",
      "type": "function"
    },
    {
      "inputs": [
        {
          "internalType": "uint256",
          "name": "",
          "type": "uint256"
        }
      ],
      "name": "betOffers",
      "outputs": [
        {
          "internalType": "uint256",
          "name": "id",
          "type": "uint256"
        },
        {
          "internalType": "bytes32",
          "name": "gameId",
          "type": "bytes32"
        },
        {
          "internalType": "address",
          "name": "player1",
          "type": "address"
        },
        {
          "internalType": "uint16",
          "name": "player1Bet",
          "type": "uint16"
        },
        {
          "internalType": "uint256",
          "name": "stake",
          "type": "uint256"
        },
        {
          "internalType": "uint256",
          "name": "expectedWin",
          "type": "uint256"
        },
        {
          "internalType": "address",
          "name": "player2",
          "type": "address"
        },
        {
          "internalType": "uint16",
          "name": "player2Bet",
          "type": "uint16"
        },
        {
          "internalType": "bool",
          "name": "isSettled",
          "type": "bool"
        }
      ],
      "stateMutability": "view",
      "type": "function"
    },
    {
      "inputs": [
        {
          "internalType": "uint256",
          "name": "betId",
          "type": "uint256"
        }
      ],
      "name": "cancelBetOffer",
      "outputs": [],
      "stateMutability": "nonpayable",
      "type": "function"
    },
    {
      "inputs": [
        {
          "internalType": "bytes32",
          "name": "_requestId",
          "type": "bytes32"
        },
        {
          "internalType": "uint256",
          "name": "_payment",
          "type": "uint256"
        },
        {
          "internalType": "bytes4",
          "name": "_callbackFunctionId",
          "type": "bytes4"
        },
        {
          "internalType": "uint256",
          "name": "_expiration",
          "type": "uint256"
        }
      ],
      "name": "cancelRequest",
      "outputs": [],
      "stateMutability": "nonpayable",
      "type": "function"
    },
    {
      "inputs": [
        {
          "internalType": "uint256",
          "name": "betId",
          "type": "uint256"
        }
      ],
      "name": "cashOutWin",
      "outputs": [],
      "stateMutability": "nonpayable",
      "type": "function"
    },
    {
      "inputs": [
        {
          "internalType": "bytes32",
          "name": "gameId",
          "type": "bytes32"
        },
        {
          "internalType": "uint16",
          "name": "bet",
          "type": "uint16"
        },
        {
          "internalType": "uint256",
          "name": "expectedWin",
          "type": "uint256"
        }
      ],
      "name": "createBetOffer",
      "outputs": [],
      "stateMutability": "payable",
      "type": "function"
    },
    {
      "inputs": [
        {
          "internalType": "bytes32",
          "name": "_requestId",
          "type": "bytes32"
        },
        {
          "internalType": "bytes[]",
          "name": "_requestedGames",
          "type": "bytes[]"
        }
      ],
      "name": "createGames",
      "outputs": [],
      "stateMutability": "nonpayable",
      "type": "function"
    },
    {
      "inputs": [
        {
          "internalType": "bytes32",
          "name": "",
          "type": "bytes32"
        }
      ],
      "name": "gameIdGame",
      "outputs": [
        {
          "internalType": "bytes32",
          "name": "gameId",
          "type": "bytes32"
        },
        {
          "internalType": "uint256",
          "name": "startTime",
          "type": "uint256"
        },
        {
          "internalType": "string",
          "name": "homeTeam",
          "type": "string"
        },
        {
          "internalType": "string",
          "name": "awayTeam",
          "type": "string"
        }
      ],
      "stateMutability": "view",
      "type": "function"
    },
    {
      "inputs": [
        {
          "internalType": "bytes32",
          "name": "",
          "type": "bytes32"
        }
      ],
      "name": "gameIdResult",
      "outputs": [
        {
          "internalType": "bytes32",
          "name": "gameId",
          "type": "bytes32"
        },
        {
          "internalType": "uint8",
          "name": "homeScore",
          "type": "uint8"
        },
        {
          "internalType": "uint8",
          "name": "awayScore",
          "type": "uint8"
        },
        {
          "internalType": "uint8",
          "name": "statusId",
          "type": "uint8"
        }
      ],
      "stateMutability": "view",
      "type": "function"
    },
    {
      "inputs": [
        {
          "internalType": "uint256",
          "name": "",
          "type": "uint256"
        }
      ],
      "name": "games",
      "outputs": [
        {
          "internalType": "bytes32",
          "name": "gameId",
          "type": "bytes32"
        },
        {
          "internalType": "uint256",
          "name": "startTime",
          "type": "uint256"
        },
        {
          "internalType": "string",
          "name": "homeTeam",
          "type": "string"
        },
        {
          "internalType": "string",
          "name": "awayTeam",
          "type": "string"
        }
      ],
      "stateMutability": "view",
      "type": "function"
    },
    {
      "inputs": [],
      "name": "getAllGames",
      "outputs": [
        {
          "components": [
            {
              "internalType": "bytes32",
              "name": "gameId",
              "type": "bytes32"
            },
            {
              "internalType": "uint256",
              "name": "startTime",
              "type": "uint256"
            },
            {
              "internalType": "string",
              "name": "homeTeam",
              "type": "string"
            },
            {
              "internalType": "string",
              "name": "awayTeam",
              "type": "string"
            }
          ],
          "internalType": "struct DataOracle.GameCreate[]",
          "name": "",
          "type": "tuple[]"
        }
      ],
      "stateMutability": "view",
      "type": "function"
    },
    {
      "inputs": [
        {
          "internalType": "bytes32",
          "name": "id",
          "type": "bytes32"
        }
      ],
      "name": "getGameById",
      "outputs": [
        {
          "components": [
            {
              "internalType": "bytes32",
              "name": "gameId",
              "type": "bytes32"
            },
            {
              "internalType": "uint256",
              "name": "startTime",
              "type": "uint256"
            },
            {
              "internalType": "string",
              "name": "homeTeam",
              "type": "string"
            },
            {
              "internalType": "string",
              "name": "awayTeam",
              "type": "string"
            }
          ],
          "internalType": "struct DataOracle.GameCreate",
          "name": "",
          "type": "tuple"
        }
      ],
      "stateMutability": "view",
      "type": "function"
    },
    {
      "inputs": [],
      "name": "getOpenBetOffers",
      "outputs": [
        {
          "components": [
            {
              "internalType": "uint256",
              "name": "id",
              "type": "uint256"
            },
            {
              "internalType": "bytes32",
              "name": "gameId",
              "type": "bytes32"
            },
            {
              "internalType": "address",
              "name": "player1",
              "type": "address"
            },
            {
              "internalType": "uint16",
              "name": "player1Bet",
              "type": "uint16"
            },
            {
              "internalType": "uint256",
              "name": "stake",
              "type": "uint256"
            },
            {
              "internalType": "uint256",
              "name": "expectedWin",
              "type": "uint256"
            },
            {
              "internalType": "address",
              "name": "player2",
              "type": "address"
            },
            {
              "internalType": "uint16",
              "name": "player2Bet",
              "type": "uint16"
            },
            {
              "internalType": "bool",
              "name": "isSettled",
              "type": "bool"
            }
          ],
          "internalType": "struct Bookmaker.BetOffer[]",
          "name": "",
          "type": "tuple[]"
        }
      ],
      "stateMutability": "view",
      "type": "function"
    },
    {
      "inputs": [],
      "name": "getSenderBets",
      "outputs": [
        {
          "components": [
            {
              "internalType": "uint256",
              "name": "id",
              "type": "uint256"
            },
            {
              "internalType": "bytes32",
              "name": "gameId",
              "type": "bytes32"
            },
            {
              "internalType": "address",
              "name": "player1",
              "type": "address"
            },
            {
              "internalType": "uint16",
              "name": "player1Bet",
              "type": "uint16"
            },
            {
              "internalType": "uint256",
              "name": "stake",
              "type": "uint256"
            },
            {
              "internalType": "uint256",
              "name": "expectedWin",
              "type": "uint256"
            },
            {
              "internalType": "address",
              "name": "player2",
              "type": "address"
            },
            {
              "internalType": "uint16",
              "name": "player2Bet",
              "type": "uint16"
            },
            {
              "internalType": "bool",
              "name": "isSettled",
              "type": "bool"
            }
          ],
          "internalType": "struct Bookmaker.BetOffer[]",
          "name": "",
          "type": "tuple[]"
        }
      ],
      "stateMutability": "view",
      "type": "function"
    },
    {
      "inputs": [
        {
          "internalType": "uint256",
          "name": "betId",
          "type": "uint256"
        },
        {
          "internalType": "uint16",
          "name": "bet",
          "type": "uint16"
        }
      ],
      "name": "joinBetOffer",
      "outputs": [],
      "stateMutability": "payable",
      "type": "function"
    },
    {
      "inputs": [],
      "name": "openBetsCounter",
      "outputs": [
        {
          "internalType": "uint256",
          "name": "",
          "type": "uint256"
        }
      ],
      "stateMutability": "view",
      "type": "function"
    },
    {
      "inputs": [
        {
          "internalType": "uint256",
          "name": "_sportId",
          "type": "uint256"
        },
        {
          "internalType": "uint256",
          "name": "_date",
          "type": "uint256"
        }
      ],
      "name": "requestGames",
      "outputs": [
        {
          "internalType": "bytes32",
          "name": "",
          "type": "bytes32"
        }
      ],
      "stateMutability": "nonpayable",
      "type": "function"
    },
    {
      "inputs": [
        {
          "internalType": "uint256",
          "name": "_sportId",
          "type": "uint256"
        },
        {
          "internalType": "uint256",
          "name": "_date",
          "type": "uint256"
        },
        {
          "internalType": "bytes32[]",
          "name": "_gamesId",
          "type": "bytes32[]"
        }
      ],
      "name": "requestResolveGames",
      "outputs": [],
      "stateMutability": "nonpayable",
      "type": "function"
    },
    {
      "inputs": [
        {
          "internalType": "bytes32",
          "name": "_requestId",
          "type": "bytes32"
        },
        {
          "internalType": "bytes[]",
          "name": "_requestedGames",
          "type": "bytes[]"
        }
      ],
      "name": "resolveGame",
      "outputs": [],
      "stateMutability": "nonpayable",
      "type": "function"
    },
    {
      "inputs": [
        {
          "internalType": "uint256",
          "name": "betId",
          "type": "uint256"
        },
        {
          "internalType": "uint256",
          "name": "sportId",
          "type": "uint256"
        }
      ],
      "name": "verifyResult",
      "outputs": [],
      "stateMutability": "nonpayable",
      "type": "function"
    }
  ],
  "bytecode": "0x6080604052600160045560006009553480156200001b57600080fd5b506200004173326c977e6efc84e512bb9c30f76e30c160ed06fb6200006c60201b60201c565b6200006673b9756312523826a566e222a34793e414a81c88e1620000b060201b60201c565b620000f4565b80600260006101000a81548173ffffffffffffffffffffffffffffffffffffffff021916908373ffffffffffffffffffffffffffffffffffffffff16021790555050565b80600360006101000a81548173ffffffffffffffffffffffffffffffffffffffff021916908373ffffffffffffffffffffffffffffffffffffffff16021790555050565b615ae180620001046000396000f3fe60806040526004361061011f5760003560e01c806372e26b9f116100a0578063e16aef3111610064578063e16aef31146103e7578063ec65d0f814610427578063f7dde57814610450578063fb8779181461047b578063ffd4f51c146104b85761011f565b806372e26b9f146103165780637a0f70831461033f5780637b35adba14610368578063b8dc504314610391578063db1c45f9146103bc5761011f565b80631d0f9bae116100e75780631d0f9bae1461020f5780631f3ceb5114610238578063311aeb8514610275578063370078a214610291578063550fd86c146102d15761011f565b806307673e991461012457806309ece2301461014d5780630fb922201461018a5780630fc29009146101a6578063117a5b90146101cf575b600080fd5b34801561013057600080fd5b5061014b60048036038101906101469190614343565b6104e3565b005b34801561015957600080fd5b50610174600480360381019061016f9190614410565b61069f565b604051610181919061444c565b60405180910390f35b6101a4600480360381019061019f91906144a1565b6106b7565b005b3480156101b257600080fd5b506101cd60048036038101906101c8919061468a565b610c0d565b005b3480156101db57600080fd5b506101f660048036038101906101f191906146e6565b610dd3565b60405161020694939291906147aa565b60405180910390f35b34801561021b57600080fd5b506102366004803603810190610231919061468a565b610f23565b005b34801561024457600080fd5b5061025f600480360381019061025a91906147fd565b61118b565b60405161026c91906148fc565b60405180910390f35b61028f600480360381019061028a919061491e565b6112f0565b005b34801561029d57600080fd5b506102b860048036038101906102b391906147fd565b611a09565b6040516102c894939291906147aa565b60405180910390f35b3480156102dd57600080fd5b506102f860048036038101906102f391906146e6565b611b49565b60405161030d99989796959493929190614997565b60405180910390f35b34801561032257600080fd5b5061033d600480360381019061033891906146e6565b611c10565b005b34801561034b57600080fd5b50610366600480360381019061036191906146e6565b611f07565b005b34801561037457600080fd5b5061038f600480360381019061038a9190614a24565b6125d8565b005b34801561039d57600080fd5b506103a661298b565b6040516103b39190614bf8565b60405180910390f35b3480156103c857600080fd5b506103d1612ccf565b6040516103de9190614d46565b60405180910390f35b3480156103f357600080fd5b5061040e600480360381019061040991906147fd565b612e66565b60405161041e9493929190614d84565b60405180910390f35b34801561043357600080fd5b5061044e60048036038101906104499190614e21565b612ebd565b005b34801561045c57600080fd5b50610465612ecf565b604051610472919061444c565b60405180910390f35b34801561048757600080fd5b506104a2600480360381019061049d9190614a24565b612ed5565b6040516104af9190614e88565b60405180910390f35b3480156104c457600080fd5b506104cd613042565b6040516104da9190614bf8565b60405180910390f35b600067016345785d8a0000905060006105267f366230396433376232383466343635356262353130663439346564633131316660001b630fc2900960e01b61330b565b90506105726040518060400160405280600481526020017f6461746500000000000000000000000000000000000000000000000000000000815250858361333b9092919063ffffffff16565b6105f16040518060400160405280600681526020017f6d61726b657400000000000000000000000000000000000000000000000000008152506040518060400160405280600781526020017f7265736f6c7665000000000000000000000000000000000000000000000000008152508361336e9092919063ffffffff16565b61063b6040518060400160405280600781526020017f73706f7274496400000000000000000000000000000000000000000000000000815250868361333b9092919063ffffffff16565b61068d6040518060400160405280600781526020017f67616d654964730000000000000000000000000000000000000000000000000081525061067d856133a1565b836134609092919063ffffffff16565b61069781836134e7565b505050505050565b600a6020528060005260406000206000915090505481565b8160018161ffff1614806106cf575060008161ffff16145b806106de575060028161ffff16145b6040518060600160405280602781526020016159606027913990610738576040517f08c379a000000000000000000000000000000000000000000000000000000000815260040161072f9190614ea3565b60405180910390fd5b5083600060076000838152602001908152602001600020604051806080016040529081600082015481526020016001820154815260200160028201805461077e90614ef4565b80601f01602080910402602001604051908101604052809291908181526020018280546107aa90614ef4565b80156107f75780601f106107cc576101008083540402835291602001916107f7565b820191906000526020600020905b8154815290600101906020018083116107da57829003601f168201915b5050505050815260200160038201805461081090614ef4565b80601f016020809104026020016040519081016040528092919081815260200182805461083c90614ef4565b80156108895780601f1061085e57610100808354040283529160200191610889565b820191906000526020600020905b81548152906001019060200180831161086c57829003601f168201915b50505050508152505090504281602001511160405180606001604052806022815260200161591860229139906108f5576040517f08c379a00000000000000000000000000000000000000000000000000000000081526004016108ec9190614ea3565b60405180910390fd5b50600034116040518060400160405280601681526020017f5374616b65203d203020697320666f7262696464656e0000000000000000000081525090610971576040517f08c379a00000000000000000000000000000000000000000000000000000000081526004016109689190614ea3565b60405180910390fd5b508334106040518060600160405280602781526020016159b960279139906109cf576040517f08c379a00000000000000000000000000000000000000000000000000000000081526004016109c69190614ea3565b60405180910390fd5b50600b604051806101200160405280600b8054905081526020018881526020013373ffffffffffffffffffffffffffffffffffffffff1681526020018761ffff168152602001348152602001868152602001600073ffffffffffffffffffffffffffffffffffffffff168152602001600061ffff168152602001600015158152509080600181540180825580915050600190039060005260206000209060060201600090919091909150600082015181600001556020820151816001015560408201518160020160006101000a81548173ffffffffffffffffffffffffffffffffffffffff021916908373ffffffffffffffffffffffffffffffffffffffff16021790555060608201518160020160146101000a81548161ffff021916908361ffff1602179055506080820151816003015560a0820151816004015560c08201518160050160006101000a81548173ffffffffffffffffffffffffffffffffffffffff021916908373ffffffffffffffffffffffffffffffffffffffff16021790555060e08201518160050160146101000a81548161ffff021916908361ffff1602179055506101008201518160050160166101000a81548160ff021916908315150217905550505060096000815480929190610bab90614f55565b9190505550600a60003373ffffffffffffffffffffffffffffffffffffffff1673ffffffffffffffffffffffffffffffffffffffff1681526020019081526020016000206000815480929190610c0090614f55565b9190505550505050505050565b816005600082815260200190815260200160002060009054906101000a900473ffffffffffffffffffffffffffffffffffffffff1673ffffffffffffffffffffffffffffffffffffffff163373ffffffffffffffffffffffffffffffffffffffff1614610caf576040517f08c379a0000000000000000000000000000000000000000000000000000000008152600401610ca690615010565b60405180910390fd5b6005600082815260200190815260200160002060006101000a81549073ffffffffffffffffffffffffffffffffffffffff0219169055807f7cc135e0cebb02c3480ae5d74d377283180a2601f8f644edf7987b009316c63a60405160405180910390a2600082600081518110610d2857610d27615030565b5b6020026020010151806020019051810190610d439190615122565b90508060086000836000015181526020019081526020016000206000820151816000015560208201518160010160006101000a81548160ff021916908360ff16021790555060408201518160010160016101000a81548160ff021916908360ff16021790555060608201518160010160026101000a81548160ff021916908360ff16021790555090505050505050565b60068181548110610de357600080fd5b9060005260206000209060040201600091509050806000015490806001015490806002018054610e1290614ef4565b80601f0160208091040260200160405190810160405280929190818152602001828054610e3e90614ef4565b8015610e8b5780601f10610e6057610100808354040283529160200191610e8b565b820191906000526020600020905b815481529060010190602001808311610e6e57829003601f168201915b505050505090806003018054610ea090614ef4565b80601f0160208091040260200160405190810160405280929190818152602001828054610ecc90614ef4565b8015610f195780601f10610eee57610100808354040283529160200191610f19565b820191906000526020600020905b815481529060010190602001808311610efc57829003601f168201915b5050505050905084565b816005600082815260200190815260200160002060009054906101000a900473ffffffffffffffffffffffffffffffffffffffff1673ffffffffffffffffffffffffffffffffffffffff163373ffffffffffffffffffffffffffffffffffffffff1614610fc5576040517f08c379a0000000000000000000000000000000000000000000000000000000008152600401610fbc90615010565b60405180910390fd5b6005600082815260200190815260200160002060006101000a81549073ffffffffffffffffffffffffffffffffffffffff0219169055807f7cc135e0cebb02c3480ae5d74d377283180a2601f8f644edf7987b009316c63a60405160405180910390a260005b825181101561118557600083828151811061104957611048615030565b5b602002602001015180602001905181019061106491906152b5565b9050806000015160076000836000015181526020019081526020016000206000015414611171576006819080600181540180825580915050600190039060005260206000209060040201600090919091909150600082015181600001556020820151816001015560408201518160020190805190602001906110e7929190613f90565b506060820151816003019080519060200190611104929190613f90565b5050508060076000836000015181526020019081526020016000206000820151816000015560208201518160010155604082015181600201908051906020019061114f929190613f90565b50606082015181600301908051906020019061116c929190613f90565b509050505b50808061117d90614f55565b91505061102b565b50505050565b611193614016565b6007600083815260200190815260200160002060405180608001604052908160008201548152602001600182015481526020016002820180546111d590614ef4565b80601f016020809104026020016040519081016040528092919081815260200182805461120190614ef4565b801561124e5780601f106112235761010080835404028352916020019161124e565b820191906000526020600020905b81548152906001019060200180831161123157829003601f168201915b5050505050815260200160038201805461126790614ef4565b80601f016020809104026020016040519081016040528092919081815260200182805461129390614ef4565b80156112e05780601f106112b5576101008083540402835291602001916112e0565b820191906000526020600020905b8154815290600101906020018083116112c357829003601f168201915b5050505050815250509050919050565b81600b818154811061130557611304615030565b5b906000526020600020906006020160050160169054906101000a900460ff16156040518060600160405280602181526020016159e0602191399061137f576040517f08c379a00000000000000000000000000000000000000000000000000000000081526004016113769190614ea3565b60405180910390fd5b508160018161ffff161480611398575060008161ffff16145b806113a7575060028161ffff16145b6040518060600160405280602781526020016159606027913990611401576040517f08c379a00000000000000000000000000000000000000000000000000000000081526004016113f89190614ea3565b60405180910390fd5b5083600073ffffffffffffffffffffffffffffffffffffffff16600b828154811061142f5761142e615030565b5b906000526020600020906006020160050160009054906101000a900473ffffffffffffffffffffffffffffffffffffffff1673ffffffffffffffffffffffffffffffffffffffff161460405180606001604052806026815260200161593a60269139906114d2576040517f08c379a00000000000000000000000000000000000000000000000000000000081526004016114c99190614ea3565b60405180910390fd5b50600b85815481106114e7576114e6615030565b5b906000526020600020906006020160010154600060076000838152602001908152602001600020604051806080016040529081600082015481526020016001820154815260200160028201805461153d90614ef4565b80601f016020809104026020016040519081016040528092919081815260200182805461156990614ef4565b80156115b65780601f1061158b576101008083540402835291602001916115b6565b820191906000526020600020905b81548152906001019060200180831161159957829003601f168201915b505050505081526020016003820180546115cf90614ef4565b80601f01602080910402602001604051908101604052809291908181526020018280546115fb90614ef4565b80156116485780601f1061161d57610100808354040283529160200191611648565b820191906000526020600020905b81548152906001019060200180831161162b57829003601f168201915b50505050508152505090504281602001511160405180606001604052806022815260200161591860229139906116b4576040517f08c379a00000000000000000000000000000000000000000000000000000000081526004016116ab9190614ea3565b60405180910390fd5b503373ffffffffffffffffffffffffffffffffffffffff16600b88815481106116e0576116df615030565b5b906000526020600020906006020160020160009054906101000a900473ffffffffffffffffffffffffffffffffffffffff1673ffffffffffffffffffffffffffffffffffffffff1614156040518060400160405280601881526020017f43616e6e6f74206a6f696e20746f206f776e206f666665720000000000000000815250906117a1576040517f08c379a00000000000000000000000000000000000000000000000000000000081526004016117989190614ea3565b60405180910390fd5b508561ffff16600b88815481106117bb576117ba615030565b5b906000526020600020906006020160020160149054906101000a900461ffff1661ffff161415604051806060016040528060238152602001615a61602391399061183b576040517f08c379a00000000000000000000000000000000000000000000000000000000081526004016118329190614ea3565b60405180910390fd5b50600b87815481106118505761184f615030565b5b906000526020600020906006020160030154600b888154811061187657611875615030565b5b90600052602060002090600602016004015461189291906152fe565b341460405180606001604052806032815260200161598760329139906118ee576040517f08c379a00000000000000000000000000000000000000000000000000000000081526004016118e59190614ea3565b60405180910390fd5b5033600b888154811061190457611903615030565b5b906000526020600020906006020160050160006101000a81548173ffffffffffffffffffffffffffffffffffffffff021916908373ffffffffffffffffffffffffffffffffffffffff16021790555085600b888154811061196857611967615030565b5b906000526020600020906006020160050160146101000a81548161ffff021916908361ffff160217905550600a60003373ffffffffffffffffffffffffffffffffffffffff1673ffffffffffffffffffffffffffffffffffffffff16815260200190815260200160002060008154809291906119e390614f55565b9190505550600960008154809291906119fb90615332565b919050555050505050505050565b6007602052806000526040600020600091509050806000015490806001015490806002018054611a3890614ef4565b80601f0160208091040260200160405190810160405280929190818152602001828054611a6490614ef4565b8015611ab15780601f10611a8657610100808354040283529160200191611ab1565b820191906000526020600020905b815481529060010190602001808311611a9457829003601f168201915b505050505090806003018054611ac690614ef4565b80601f0160208091040260200160405190810160405280929190818152602001828054611af290614ef4565b8015611b3f5780601f10611b1457610100808354040283529160200191611b3f565b820191906000526020600020905b815481529060010190602001808311611b2257829003601f168201915b5050505050905084565b600b8181548110611b5957600080fd5b90600052602060002090600602016000915090508060000154908060010154908060020160009054906101000a900473ffffffffffffffffffffffffffffffffffffffff16908060020160149054906101000a900461ffff16908060030154908060040154908060050160009054906101000a900473ffffffffffffffffffffffffffffffffffffffff16908060050160149054906101000a900461ffff16908060050160169054906101000a900460ff16905089565b80600b8181548110611c2557611c24615030565b5b906000526020600020906006020160050160169054906101000a900460ff16156040518060600160405280602181526020016159e06021913990611c9f576040517f08c379a0000000000000000000000000000000000000000000000000000000008152600401611c969190614ea3565b60405180910390fd5b5081600073ffffffffffffffffffffffffffffffffffffffff16600b8281548110611ccd57611ccc615030565b5b906000526020600020906006020160050160009054906101000a900473ffffffffffffffffffffffffffffffffffffffff1673ffffffffffffffffffffffffffffffffffffffff161460405180606001604052806026815260200161593a6026913990611d70576040517f08c379a0000000000000000000000000000000000000000000000000000000008152600401611d679190614ea3565b60405180910390fd5b50600b8381548110611d8557611d84615030565b5b906000526020600020906006020160020160009054906101000a900473ffffffffffffffffffffffffffffffffffffffff1673ffffffffffffffffffffffffffffffffffffffff163373ffffffffffffffffffffffffffffffffffffffff16146040518060600160405280603e8152602001615a01603e913990611e3f576040517f08c379a0000000000000000000000000000000000000000000000000000000008152600401611e369190614ea3565b60405180910390fd5b503373ffffffffffffffffffffffffffffffffffffffff166108fc600b8581548110611e6e57611e6d615030565b5b9060005260206000209060060201600301549081150290604051600060405180830381858888f19350505050158015611eab573d6000803e3d6000fd5b506001600b8481548110611ec257611ec1615030565b5b906000526020600020906006020160050160166101000a81548160ff02191690831515021790555060096000815480929190611efd90615332565b9190505550505050565b80600b8181548110611f1c57611f1b615030565b5b906000526020600020906006020160050160169054906101000a900460ff16156040518060600160405280602181526020016159e06021913990611f96576040517f08c379a0000000000000000000000000000000000000000000000000000000008152600401611f8d9190614ea3565b60405180910390fd5b506000600b8381548110611fad57611fac615030565b5b90600052602060002090600602016040518061012001604052908160008201548152602001600182015481526020016002820160009054906101000a900473ffffffffffffffffffffffffffffffffffffffff1673ffffffffffffffffffffffffffffffffffffffff1673ffffffffffffffffffffffffffffffffffffffff1681526020016002820160149054906101000a900461ffff1661ffff1661ffff16815260200160038201548152602001600482015481526020016005820160009054906101000a900473ffffffffffffffffffffffffffffffffffffffff1673ffffffffffffffffffffffffffffffffffffffff1673ffffffffffffffffffffffffffffffffffffffff1681526020016005820160149054906101000a900461ffff1661ffff1661ffff1681526020016005820160169054906101000a900460ff161515151581525050905060006007600083602001518152602001908152602001600020604051806080016040529081600082015481526020016001820154815260200160028201805461214090614ef4565b80601f016020809104026020016040519081016040528092919081815260200182805461216c90614ef4565b80156121b95780601f1061218e576101008083540402835291602001916121b9565b820191906000526020600020905b81548152906001019060200180831161219c57829003601f168201915b505050505081526020016003820180546121d290614ef4565b80601f01602080910402602001604051908101604052809291908181526020018280546121fe90614ef4565b801561224b5780601f106122205761010080835404028352916020019161224b565b820191906000526020600020905b81548152906001019060200180831161222e57829003601f168201915b50505050508152505090506000600860008360000151815260200190815260200160002060010160029054906101000a900460ff1660ff161415604051806060016040528060228152602001615a3f60229139906122df576040517f08c379a00000000000000000000000000000000000000000000000000000000081526004016122d69190614ea3565b60405180910390fd5b5060088060008360000151815260200190815260200160002060010160029054906101000a900460ff1660ff1614156124de5760008260400151905060008360c0015190506000808560600151905060008660e0015190506000600860008860000151815260200190815260200160002060010160009054906101000a900460ff1660ff1690506000600860008960000151815260200190815260200160002060010160019054906101000a900460ff1660ff16905080821180156123a8575060018461ffff16145b156123b557869450612440565b80821180156123c8575060018361ffff16145b156123d55785945061243f565b80821080156123e8575060028461ffff16145b156123f55786945061243e565b8082108015612408575060028361ffff16145b156124155785945061243d565b60008461ffff16141561242a5786945061243c565b60008361ffff16141561243b578594505b5b5b5b5b5b600073ffffffffffffffffffffffffffffffffffffffff168573ffffffffffffffffffffffffffffffffffffffff16146124d2578473ffffffffffffffffffffffffffffffffffffffff166108fc8a60a001519081150290604051600060405180830381858888f193505050501580156124be573d6000803e3d6000fd5b506001896101000190151590811515815250505b505050505050506125d2565b6001600860008360000151815260200190815260200160002060010160029054906101000a900460ff1660ff1614156125d157816040015173ffffffffffffffffffffffffffffffffffffffff166108fc83608001519081150290604051600060405180830381858888f1935050505015801561255f573d6000803e3d6000fd5b508160c0015173ffffffffffffffffffffffffffffffffffffffff166108fc83608001518460a0015161259291906152fe565b9081150290604051600060405180830381858888f193505050501580156125bd573d6000803e3d6000fd5b506001826101000190151590811515815250505b5b50505050565b81600b81815481106125ed576125ec615030565b5b906000526020600020906006020160050160169054906101000a900460ff16156040518060600160405280602181526020016159e06021913990612667576040517f08c379a000000000000000000000000000000000000000000000000000000000815260040161265e9190614ea3565b60405180910390fd5b50600060076000600b868154811061268257612681615030565b5b906000526020600020906006020160010154815260200190815260200160002060405180608001604052908160008201548152602001600182015481526020016002820180546126d190614ef4565b80601f01602080910402602001604051908101604052809291908181526020018280546126fd90614ef4565b801561274a5780601f1061271f5761010080835404028352916020019161274a565b820191906000526020600020905b81548152906001019060200180831161272d57829003601f168201915b5050505050815260200160038201805461276390614ef4565b80601f016020809104026020016040519081016040528092919081815260200182805461278f90614ef4565b80156127dc5780601f106127b1576101008083540402835291602001916127dc565b820191906000526020600020905b8154815290600101906020018083116127bf57829003601f168201915b5050505050815250509050612a30426127f591906152fe565b816020015110604051806060016040528060288152602001615a846028913990612855576040517f08c379a000000000000000000000000000000000000000000000000000000000815260040161284c9190614ea3565b60405180910390fd5b5060088060008360000151815260200190815260200160002060010160029054906101000a900460ff1660ff1614156040518060400160405280601d81526020017f546869732067616d6520697320616c7265616479207665726966696564000000815250906128fb576040517f08c379a00000000000000000000000000000000000000000000000000000000081526004016128f29190614ea3565b60405180910390fd5b506000816020015190506000600167ffffffffffffffff811115612922576129216141ca565b5b6040519080825280602002602001820160405280156129505781602001602082028036833780820191505090505b50905082600001518160008151811061296c5761296b615030565b5b6020026020010181815250506129838583836104e3565b505050505050565b60606000600a60003373ffffffffffffffffffffffffffffffffffffffff1673ffffffffffffffffffffffffffffffffffffffff1681526020019081526020016000205467ffffffffffffffff8111156129e8576129e76141ca565b5b604051908082528060200260200182016040528015612a2157816020015b612a0e614041565b815260200190600190039081612a065790505b5090506000805b600b80549050811015612cc6573373ffffffffffffffffffffffffffffffffffffffff16600b8281548110612a6057612a5f615030565b5b906000526020600020906006020160020160009054906101000a900473ffffffffffffffffffffffffffffffffffffffff1673ffffffffffffffffffffffffffffffffffffffff161480612b2457503373ffffffffffffffffffffffffffffffffffffffff16600b8281548110612ada57612ad9615030565b5b906000526020600020906006020160050160009054906101000a900473ffffffffffffffffffffffffffffffffffffffff1673ffffffffffffffffffffffffffffffffffffffff16145b15612cb357600b8181548110612b3d57612b3c615030565b5b90600052602060002090600602016040518061012001604052908160008201548152602001600182015481526020016002820160009054906101000a900473ffffffffffffffffffffffffffffffffffffffff1673ffffffffffffffffffffffffffffffffffffffff1673ffffffffffffffffffffffffffffffffffffffff1681526020016002820160149054906101000a900461ffff1661ffff1661ffff16815260200160038201548152602001600482015481526020016005820160009054906101000a900473ffffffffffffffffffffffffffffffffffffffff1673ffffffffffffffffffffffffffffffffffffffff1673ffffffffffffffffffffffffffffffffffffffff1681526020016005820160149054906101000a900461ffff1661ffff1661ffff1681526020016005820160169054906101000a900460ff161515151581525050838381518110612c9957612c98615030565b5b60200260200101819052508180612caf90614f55565b9250505b8080612cbe90614f55565b915050612a28565b50819250505090565b60606006805480602002602001604051908101604052809291908181526020016000905b82821015612e5d57838290600052602060002090600402016040518060800160405290816000820154815260200160018201548152602001600282018054612d3a90614ef4565b80601f0160208091040260200160405190810160405280929190818152602001828054612d6690614ef4565b8015612db35780601f10612d8857610100808354040283529160200191612db3565b820191906000526020600020905b815481529060010190602001808311612d9657829003601f168201915b50505050508152602001600382018054612dcc90614ef4565b80601f0160208091040260200160405190810160405280929190818152602001828054612df890614ef4565b8015612e455780601f10612e1a57610100808354040283529160200191612e45565b820191906000526020600020905b815481529060010190602001808311612e2857829003601f168201915b50505050508152505081526020019060010190612cf3565b50505050905090565b60086020528060005260406000206000915090508060000154908060010160009054906101000a900460ff16908060010160019054906101000a900460ff16908060010160029054906101000a900460ff16905084565b612ec98484848461351e565b50505050565b60095481565b60008067016345785d8a000090506000612f197f366230396433376232383466343635356262353130663439346564633131316660001b631d0f9bae60e01b61330b565b9050612f656040518060400160405280600481526020017f6461746500000000000000000000000000000000000000000000000000000000815250858361333b9092919063ffffffff16565b612fe46040518060400160405280600681526020017f6d61726b657400000000000000000000000000000000000000000000000000008152506040518060400160405280600681526020017f63726561746500000000000000000000000000000000000000000000000000008152508361336e9092919063ffffffff16565b61302e6040518060400160405280600781526020017f73706f7274496400000000000000000000000000000000000000000000000000815250868361333b9092919063ffffffff16565b61303881836134e7565b9250505092915050565b6060600060095467ffffffffffffffff811115613062576130616141ca565b5b60405190808252806020026020018201604052801561309b57816020015b613088614041565b8152602001906001900390816130805790505b5090506000805b600b8054905081101561330257600b81815481106130c3576130c2615030565b5b906000526020600020906006020160050160169054906101000a900460ff161580156131605750600073ffffffffffffffffffffffffffffffffffffffff16600b828154811061311657613115615030565b5b906000526020600020906006020160050160009054906101000a900473ffffffffffffffffffffffffffffffffffffffff1673ffffffffffffffffffffffffffffffffffffffff16145b156132ef57600b818154811061317957613178615030565b5b90600052602060002090600602016040518061012001604052908160008201548152602001600182015481526020016002820160009054906101000a900473ffffffffffffffffffffffffffffffffffffffff1673ffffffffffffffffffffffffffffffffffffffff1673ffffffffffffffffffffffffffffffffffffffff1681526020016002820160149054906101000a900461ffff1661ffff1661ffff16815260200160038201548152602001600482015481526020016005820160009054906101000a900473ffffffffffffffffffffffffffffffffffffffff1673ffffffffffffffffffffffffffffffffffffffff1673ffffffffffffffffffffffffffffffffffffffff1681526020016005820160149054906101000a900461ffff1661ffff1661ffff1681526020016005820160169054906101000a900460ff1615151515815250508383815181106132d5576132d4615030565b5b602002602001018190525081806132eb90614f55565b9250505b80806132fa90614f55565b9150506130a2565b50819250505090565b6133136140c6565b61331b6140c6565b61333284308584613631909392919063ffffffff16565b91505092915050565b6133528284608001516136e190919063ffffffff16565b61336981846080015161370690919063ffffffff16565b505050565b6133858284608001516136e190919063ffffffff16565b61339c8184608001516136e190919063ffffffff16565b505050565b60606000825167ffffffffffffffff8111156133c0576133bf6141ca565b5b6040519080825280602002602001820160405280156133f357816020015b60608152602001906001900390816133de5790505b50905060005b83518110156134565761342584828151811061341857613417615030565b5b6020026020010151613736565b82828151811061343857613437615030565b5b6020026020010181905250808061344e90614f55565b9150506133f9565b5080915050919050565b6134778284608001516136e190919063ffffffff16565b613484836080015161380c565b60005b81518110156134d4576134c18282815181106134a6576134a5615030565b5b602002602001015185608001516136e190919063ffffffff16565b80806134cc90614f55565b915050613487565b506134e2836080015161381a565b505050565b6000613516600360009054906101000a900473ffffffffffffffffffffffffffffffffffffffff168484613828565b905092915050565b60006005600086815260200190815260200160002060009054906101000a900473ffffffffffffffffffffffffffffffffffffffff1690506005600086815260200190815260200160002060006101000a81549073ffffffffffffffffffffffffffffffffffffffff0219169055847fe1fe3afa0f7f761ff0a8b89086790efd5140d2907ebd5b7ff6bfcb5e075fd4c560405160405180910390a28073ffffffffffffffffffffffffffffffffffffffff16636ee4d553868686866040518563ffffffff1660e01b81526004016135f8949392919061536b565b600060405180830381600087803b15801561361257600080fd5b505af1158015613626573d6000803e3d6000fd5b505050505050505050565b6136396140c6565b61364985608001516101006138f2565b508385600001818152505082856020019073ffffffffffffffffffffffffffffffffffffffff16908173ffffffffffffffffffffffffffffffffffffffff16815250508185604001907bffffffffffffffffffffffffffffffffffffffffffffffffffffffff191690817bffffffffffffffffffffffffffffffffffffffffffffffffffffffff191681525050849050949350505050565b6136ee826003835161395c565b6137018183613ae190919063ffffffff16565b505050565b67ffffffffffffffff811115613725576137208282613b03565b613732565b6137318260008361395c565b5b5050565b60606000602067ffffffffffffffff811115613755576137546141ca565b5b6040519080825280601f01601f1916602001820160405280156137875781602001600182028036833780820191505090505b50905060005b6020811015613802578381602081106137a9576137a8615030565b5b1a60f81b8282815181106137c0576137bf615030565b5b60200101907effffffffffffffffffffffffffffffffffffffffffffffffffffffffffffff1916908160001a90535080806137fa90614f55565b91505061378d565b5080915050919050565b613817816004613b4f565b50565b613825816007613b4f565b50565b600080600454905060018161383d91906153b0565b6004819055506000633c6d41b960e01b600080876000015188604001518660028b608001516000015160405160240161387c979695949392919061545b565b604051602081830303815290604052907bffffffffffffffffffffffffffffffffffffffffffffffffffffffff19166020820180517bffffffffffffffffffffffffffffffffffffffffffffffffffffffff838183161783525050505090506138e786838684613b71565b925050509392505050565b6138fa614133565b60006020836139099190615500565b146139355760208261391b9190615500565b602061392791906152fe565b8261393291906153b0565b91505b81836020018181525050604051808452600081528281016020016040525082905092915050565b60178167ffffffffffffffff16116139935761398d8160058460ff16901b60ff161784613d1590919063ffffffff16565b50613adc565b60ff8167ffffffffffffffff16116139e9576139c2601860058460ff16901b1784613d1590919063ffffffff16565b506139e38167ffffffffffffffff16600185613d359092919063ffffffff16565b50613adb565b61ffff8167ffffffffffffffff1611613a4057613a19601960058460ff16901b1784613d1590919063ffffffff16565b50613a3a8167ffffffffffffffff16600285613d359092919063ffffffff16565b50613ada565b63ffffffff8167ffffffffffffffff1611613a9957613a72601a60058460ff16901b1784613d1590919063ffffffff16565b50613a938167ffffffffffffffff16600485613d359092919063ffffffff16565b50613ad9565b613ab6601b60058460ff16901b1784613d1590919063ffffffff16565b50613ad78167ffffffffffffffff16600885613d359092919063ffffffff16565b505b5b5b5b505050565b613ae9614133565b613afb83846000015151848551613d57565b905092915050565b613b2160026005600660ff16901b1783613d1590919063ffffffff16565b50613b4b8282604051602001613b37919061444c565b604051602081830303815290604052613e46565b5050565b613b6c601f60058360ff16901b1783613d1590919063ffffffff16565b505050565b60003084604051602001613b869291906155ea565b604051602081830303815290604052805190602001209050846005600083815260200190815260200160002060006101000a81548173ffffffffffffffffffffffffffffffffffffffff021916908373ffffffffffffffffffffffffffffffffffffffff160217905550807fb5e6e01e79f91267dc17b4e6314d5d4d03593d2ceee0fbb452b750bd70ea5af960405160405180910390a2600260009054906101000a900473ffffffffffffffffffffffffffffffffffffffff1673ffffffffffffffffffffffffffffffffffffffff16634000aea08685856040518463ffffffff1660e01b8152600401613c7c93929190615616565b602060405180830381600087803b158015613c9657600080fd5b505af1158015613caa573d6000803e3d6000fd5b505050506040513d601f19601f82011682018060405250810190613cce9190615680565b613d0d576040517f08c379a0000000000000000000000000000000000000000000000000000000008152600401613d049061571f565b60405180910390fd5b949350505050565b613d1d614133565b613d2d8384600001515184613e6b565b905092915050565b613d3d614133565b613d4e848560000151518585613ec2565b90509392505050565b613d5f614133565b8251821115613d6d57600080fd5b84602001518285613d7e91906153b0565b1115613db357613db2856002613da388602001518887613d9e91906153b0565b613f50565b613dad919061573f565b613f6c565b5b600080865180518760208301019350808887011115613dd25787860182525b60208701925050505b60208410613e195780518252602082613df491906153b0565b9150602081613e0391906153b0565b9050602084613e1291906152fe565b9350613ddb565b60006001856020036101000a03905080198251168184511681811785525050508692505050949350505050565b613e53826002835161395c565b613e668183613ae190919063ffffffff16565b505050565b613e73614133565b83602001518310613e9957613e988460028660200151613e93919061573f565b613f6c565b5b8351805160208583010184815381861415613eb5576001820183525b5050508390509392505050565b613eca614133565b84602001518483613edb91906153b0565b1115613f0357613f028560028685613ef391906153b0565b613efd919061573f565b613f6c565b5b6000600183610100613f1591906158cc565b613f1f91906152fe565b90508551838682010185831982511617815281518588011115613f425784870182525b505085915050949350505050565b600081831115613f6257829050613f66565b8190505b92915050565b600082600001519050613f7f83836138f2565b50613f8a8382613ae1565b50505050565b828054613f9c90614ef4565b90600052602060002090601f016020900481019282613fbe5760008555614005565b82601f10613fd757805160ff1916838001178555614005565b82800160010185558215614005579182015b82811115614004578251825591602001919060010190613fe9565b5b509050614012919061414d565b5090565b6040518060800160405280600080191681526020016000815260200160608152602001606081525090565b6040518061012001604052806000815260200160008019168152602001600073ffffffffffffffffffffffffffffffffffffffff168152602001600061ffff1681526020016000815260200160008152602001600073ffffffffffffffffffffffffffffffffffffffff168152602001600061ffff1681526020016000151581525090565b6040518060a0016040528060008019168152602001600073ffffffffffffffffffffffffffffffffffffffff16815260200160007bffffffffffffffffffffffffffffffffffffffffffffffffffffffff191681526020016000815260200161412d614133565b81525090565b604051806040016040528060608152602001600081525090565b5b8082111561416657600081600090555060010161414e565b5090565b6000604051905090565b600080fd5b600080fd5b6000819050919050565b6141918161417e565b811461419c57600080fd5b50565b6000813590506141ae81614188565b92915050565b600080fd5b6000601f19601f8301169050919050565b7f4e487b7100000000000000000000000000000000000000000000000000000000600052604160045260246000fd5b614202826141b9565b810181811067ffffffffffffffff82111715614221576142206141ca565b5b80604052505050565b600061423461416a565b905061424082826141f9565b919050565b600067ffffffffffffffff8211156142605761425f6141ca565b5b602082029050602081019050919050565b600080fd5b6000819050919050565b61428981614276565b811461429457600080fd5b50565b6000813590506142a681614280565b92915050565b60006142bf6142ba84614245565b61422a565b905080838252602082019050602084028301858111156142e2576142e1614271565b5b835b8181101561430b57806142f78882614297565b8452602084019350506020810190506142e4565b5050509392505050565b600082601f83011261432a576143296141b4565b5b813561433a8482602086016142ac565b91505092915050565b60008060006060848603121561435c5761435b614174565b5b600061436a8682870161419f565b935050602061437b8682870161419f565b925050604084013567ffffffffffffffff81111561439c5761439b614179565b5b6143a886828701614315565b9150509250925092565b600073ffffffffffffffffffffffffffffffffffffffff82169050919050565b60006143dd826143b2565b9050919050565b6143ed816143d2565b81146143f857600080fd5b50565b60008135905061440a816143e4565b92915050565b60006020828403121561442657614425614174565b5b6000614434848285016143fb565b91505092915050565b6144468161417e565b82525050565b6000602082019050614461600083018461443d565b92915050565b600061ffff82169050919050565b61447e81614467565b811461448957600080fd5b50565b60008135905061449b81614475565b92915050565b6000806000606084860312156144ba576144b9614174565b5b60006144c886828701614297565b93505060206144d98682870161448c565b92505060406144ea8682870161419f565b9150509250925092565b600067ffffffffffffffff82111561450f5761450e6141ca565b5b602082029050602081019050919050565b600080fd5b600067ffffffffffffffff8211156145405761453f6141ca565b5b614549826141b9565b9050602081019050919050565b82818337600083830152505050565b600061457861457384614525565b61422a565b90508281526020810184848401111561459457614593614520565b5b61459f848285614556565b509392505050565b600082601f8301126145bc576145bb6141b4565b5b81356145cc848260208601614565565b91505092915050565b60006145e86145e3846144f4565b61422a565b9050808382526020820190506020840283018581111561460b5761460a614271565b5b835b8181101561465257803567ffffffffffffffff8111156146305761462f6141b4565b5b80860161463d89826145a7565b8552602085019450505060208101905061460d565b5050509392505050565b600082601f830112614671576146706141b4565b5b81356146818482602086016145d5565b91505092915050565b600080604083850312156146a1576146a0614174565b5b60006146af85828601614297565b925050602083013567ffffffffffffffff8111156146d0576146cf614179565b5b6146dc8582860161465c565b9150509250929050565b6000602082840312156146fc576146fb614174565b5b600061470a8482850161419f565b91505092915050565b61471c81614276565b82525050565b600081519050919050565b600082825260208201905092915050565b60005b8381101561475c578082015181840152602081019050614741565b8381111561476b576000848401525b50505050565b600061477c82614722565b614786818561472d565b935061479681856020860161473e565b61479f816141b9565b840191505092915050565b60006080820190506147bf6000830187614713565b6147cc602083018661443d565b81810360408301526147de8185614771565b905081810360608301526147f28184614771565b905095945050505050565b60006020828403121561481357614812614174565b5b600061482184828501614297565b91505092915050565b61483381614276565b82525050565b6148428161417e565b82525050565b600082825260208201905092915050565b600061486482614722565b61486e8185614848565b935061487e81856020860161473e565b614887816141b9565b840191505092915050565b60006080830160008301516148aa600086018261482a565b5060208301516148bd6020860182614839565b50604083015184820360408601526148d58282614859565b915050606083015184820360608601526148ef8282614859565b9150508091505092915050565b600060208201905081810360008301526149168184614892565b905092915050565b6000806040838503121561493557614934614174565b5b60006149438582860161419f565b92505060206149548582860161448c565b9150509250929050565b614967816143d2565b82525050565b61497681614467565b82525050565b60008115159050919050565b6149918161497c565b82525050565b6000610120820190506149ad600083018c61443d565b6149ba602083018b614713565b6149c7604083018a61495e565b6149d4606083018961496d565b6149e1608083018861443d565b6149ee60a083018761443d565b6149fb60c083018661495e565b614a0860e083018561496d565b614a16610100830184614988565b9a9950505050505050505050565b60008060408385031215614a3b57614a3a614174565b5b6000614a498582860161419f565b9250506020614a5a8582860161419f565b9150509250929050565b600081519050919050565b600082825260208201905092915050565b6000819050602082019050919050565b614a99816143d2565b82525050565b614aa881614467565b82525050565b614ab78161497c565b82525050565b61012082016000820151614ad46000850182614839565b506020820151614ae7602085018261482a565b506040820151614afa6040850182614a90565b506060820151614b0d6060850182614a9f565b506080820151614b206080850182614839565b5060a0820151614b3360a0850182614839565b5060c0820151614b4660c0850182614a90565b5060e0820151614b5960e0850182614a9f565b50610100820151614b6e610100850182614aae565b50505050565b6000614b808383614abd565b6101208301905092915050565b6000602082019050919050565b6000614ba582614a64565b614baf8185614a6f565b9350614bba83614a80565b8060005b83811015614beb578151614bd28882614b74565b9750614bdd83614b8d565b925050600181019050614bbe565b5085935050505092915050565b60006020820190508181036000830152614c128184614b9a565b905092915050565b600081519050919050565b600082825260208201905092915050565b6000819050602082019050919050565b6000608083016000830151614c5e600086018261482a565b506020830151614c716020860182614839565b5060408301518482036040860152614c898282614859565b91505060608301518482036060860152614ca38282614859565b9150508091505092915050565b6000614cbc8383614c46565b905092915050565b6000602082019050919050565b6000614cdc82614c1a565b614ce68185614c25565b935083602082028501614cf885614c36565b8060005b85811015614d345784840389528151614d158582614cb0565b9450614d2083614cc4565b925060208a01995050600181019050614cfc565b50829750879550505050505092915050565b60006020820190508181036000830152614d608184614cd1565b905092915050565b600060ff82169050919050565b614d7e81614d68565b82525050565b6000608082019050614d996000830187614713565b614da66020830186614d75565b614db36040830185614d75565b614dc06060830184614d75565b95945050505050565b60007fffffffff0000000000000000000000000000000000000000000000000000000082169050919050565b614dfe81614dc9565b8114614e0957600080fd5b50565b600081359050614e1b81614df5565b92915050565b60008060008060808587031215614e3b57614e3a614174565b5b6000614e4987828801614297565b9450506020614e5a8782880161419f565b9350506040614e6b87828801614e0c565b9250506060614e7c8782880161419f565b91505092959194509250565b6000602082019050614e9d6000830184614713565b92915050565b60006020820190508181036000830152614ebd8184614771565b905092915050565b7f4e487b7100000000000000000000000000000000000000000000000000000000600052602260045260246000fd5b60006002820490506001821680614f0c57607f821691505b60208210811415614f2057614f1f614ec5565b5b50919050565b7f4e487b7100000000000000000000000000000000000000000000000000000000600052601160045260246000fd5b6000614f608261417e565b91507fffffffffffffffffffffffffffffffffffffffffffffffffffffffffffffffff821415614f9357614f92614f26565b5b600182019050919050565b7f536f75726365206d75737420626520746865206f7261636c65206f662074686560008201527f2072657175657374000000000000000000000000000000000000000000000000602082015250565b6000614ffa60288361472d565b915061500582614f9e565b604082019050919050565b6000602082019050818103600083015261502981614fed565b9050919050565b7f4e487b7100000000000000000000000000000000000000000000000000000000600052603260045260246000fd5b600080fd5b600080fd5b60008151905061507881614280565b92915050565b61508781614d68565b811461509257600080fd5b50565b6000815190506150a48161507e565b92915050565b6000608082840312156150c0576150bf61505f565b5b6150ca608061422a565b905060006150da84828501615069565b60008301525060206150ee84828501615095565b602083015250604061510284828501615095565b604083015250606061511684828501615095565b60608301525092915050565b60006080828403121561513857615137614174565b5b6000615146848285016150aa565b91505092915050565b60008151905061515e81614188565b92915050565b600067ffffffffffffffff82111561517f5761517e6141ca565b5b615188826141b9565b9050602081019050919050565b60006151a86151a384615164565b61422a565b9050828152602081018484840111156151c4576151c3614520565b5b6151cf84828561473e565b509392505050565b600082601f8301126151ec576151eb6141b4565b5b81516151fc848260208601615195565b91505092915050565b60006080828403121561521b5761521a61505f565b5b615225608061422a565b9050600061523584828501615069565b60008301525060206152498482850161514f565b602083015250604082015167ffffffffffffffff81111561526d5761526c615064565b5b615279848285016151d7565b604083015250606082015167ffffffffffffffff81111561529d5761529c615064565b5b6152a9848285016151d7565b60608301525092915050565b6000602082840312156152cb576152ca614174565b5b600082015167ffffffffffffffff8111156152e9576152e8614179565b5b6152f584828501615205565b91505092915050565b60006153098261417e565b91506153148361417e565b92508282101561532757615326614f26565b5b828203905092915050565b600061533d8261417e565b9150600082141561535157615350614f26565b5b600182039050919050565b61536581614dc9565b82525050565b60006080820190506153806000830187614713565b61538d602083018661443d565b61539a604083018561535c565b6153a7606083018461443d565b95945050505050565b60006153bb8261417e565b91506153c68361417e565b9250827fffffffffffffffffffffffffffffffffffffffffffffffffffffffffffffffff038211156153fb576153fa614f26565b5b828201905092915050565b600081519050919050565b600082825260208201905092915050565b600061542d82615406565b6154378185615411565b935061544781856020860161473e565b615450816141b9565b840191505092915050565b600060e082019050615470600083018a61495e565b61547d602083018961443d565b61548a6040830188614713565b615497606083018761535c565b6154a4608083018661443d565b6154b160a083018561443d565b81810360c08301526154c38184615422565b905098975050505050505050565b7f4e487b7100000000000000000000000000000000000000000000000000000000600052601260045260246000fd5b600061550b8261417e565b91506155168361417e565b925082615526576155256154d1565b5b828206905092915050565b6000819050919050565b600061555661555161554c846143b2565b615531565b6143b2565b9050919050565b60006155688261553b565b9050919050565b600061557a8261555d565b9050919050565b60008160601b9050919050565b600061559982615581565b9050919050565b60006155ab8261558e565b9050919050565b6155c36155be8261556f565b6155a0565b82525050565b6000819050919050565b6155e46155df8261417e565b6155c9565b82525050565b60006155f682856155b2565b60148201915061560682846155d3565b6020820191508190509392505050565b600060608201905061562b600083018661495e565b615638602083018561443d565b818103604083015261564a8184615422565b9050949350505050565b61565d8161497c565b811461566857600080fd5b50565b60008151905061567a81615654565b92915050565b60006020828403121561569657615695614174565b5b60006156a48482850161566b565b91505092915050565b7f756e61626c6520746f207472616e73666572416e6443616c6c20746f206f726160008201527f636c650000000000000000000000000000000000000000000000000000000000602082015250565b600061570960238361472d565b9150615714826156ad565b604082019050919050565b60006020820190508181036000830152615738816156fc565b9050919050565b600061574a8261417e565b91506157558361417e565b9250817fffffffffffffffffffffffffffffffffffffffffffffffffffffffffffffffff048311821515161561578e5761578d614f26565b5b828202905092915050565b60008160011c9050919050565b6000808291508390505b60018511156157f0578086048111156157cc576157cb614f26565b5b60018516156157db5780820291505b80810290506157e985615799565b94506157b0565b94509492505050565b60008261580957600190506158c5565b8161581757600090506158c5565b816001811461582d576002811461583757615866565b60019150506158c5565b60ff84111561584957615848614f26565b5b8360020a9150848211156158605761585f614f26565b5b506158c5565b5060208310610133831016604e8410600b841016171561589b5782820a90508381111561589657615895614f26565b5b6158c5565b6158a884848460016157a6565b925090508184048111156158bf576158be614f26565b5b81810290505b9392505050565b60006158d78261417e565b91506158e28361417e565b925061590f7fffffffffffffffffffffffffffffffffffffffffffffffffffffffffffffffff84846157f9565b90509291505056fe53746172742074696d65206f662067616d6520646561646c696e6520706173736564546865726520697320616c726561647920706c617965723220666f7220746865736520626574496e76616c6964206265742076616c7565202873686f756c6420626520312c2030206f7220322957726f6e67207374616b652076616c756520746f206d6565742065787065637465642077696e20726571756972656d656e7445787065637465642077696e206d7573742062652067726561746572207468616e207374616b6554686973206265742068617320616c7265616479206265656e20736574746c6564426574206f6666657220696e69746961746f7220616464726573732061726520646966666572656e7420746861742066756e6374696f6e2063616c6c6572596f75206861766520746f2063616c6c207665726966792067616d6520666972737443616e6e6f74206265742073616d6520726573756c74206c696b6520706c61796572313320686f7572732061667465722067616d6520737461727420646f206e6f74207061737320796574a264697066735822122086839e2ba1b56c850a8613a63cddfdc79e0c19e209b57e755af6a5459bdc869064736f6c63430008090033",
  "linkReferences": {},
  "deployedLinkReferences": {}
}